:060000000A128A11CA2F4A
:10001000F401F501701C12287208F4070318F50AA0
:100020007308F50701300310F20DF30DFF3E031DB9
:10003000132801300310F10CF00CFF3E031D1A28A9
:1000400070087104031D0A287508F1007408F00097
:100050000800831203134008C4004108C500420889
:10006000C6000310450D460DC7004708CD004D08DA
:10007000031D43280030C3000030C2000030C1001F
:100080000030C00008004008C4004108C500420814
:10009000C60017300310C60CC50CC40CFF3E031D70
:1000A0004A284408C7004708C800C117FF30C005E8
:1000B000FF30C1050030C2054008C9004108CA0030
:1000C0004208CB00CC018E30CD02CD1F85284D08D3
:1000D000803A8F3E031875280030C3000030C200FC
:1000E0000030C1000030C000080001300310CC0C0B
:1000F000CB0CCA0CC90CFF3E031D76280130C4008E
:100100004408CD070319A028752818304D02031C98
:100110009D280030C3000030C2000030C100003014
:10012000C00008000130C4000310C90DCA0DCB0D7A
:10013000CC0DC40B94280130CD024D08031D92282C
:1001400048080319AE28C909CA09CB09CC09C90A4C
:100150000319CA0A0319CB0A0319CC0A4C08C300B5
:100160004B08C2004A08C1004908C00008008312B9
:100170000313C6006E304602031CA1290330BA00E7
:100180003A08A4000A30F7000030F8004608BB0027
:10019000BC013B08F2003C08F3006430F000003082
:1001A000F1000A168A1131250A128A117108FA0023
:1001B0007008F9000A168A11C8250A128A117708F0
:1001C000093E0A168A11D2240A128A11613E84005D
:1001D00090300318013E83120313FF000A168A11A0
:1001E00000200A128A11A7000A168A1100200A129A
:1001F0008A11A8000A168A1100200A128A11A90081
:100200000330BD003D08A4006430F7000030F80062
:100210004608BE00BF013E08F9003F08FA000A1672
:100220008A11C8250A128A117708123E0A168A1105
:10023000D2240A128A11613E840090300318013ED4
:1002400083120313FF000A168A1100200A128A1172
:10025000AA000A168A1100200A128A11AB000A1697
:100260008A1100200A128A11AC000A128A15CC20C9
:100270000A128A11831203132708C3002808C40036
:100280002908C5000330BA003A08A4004608BB009C
:10029000BC013B08F2003C08F3000A30F0000030DB
:1002A000F1000A168A1131250A128A1170080A16FD
:1002B0008A11D2240A128A11613E840090300318F8
:1002C000013E83120313FF000A168A1100200A124E
:1002D0008A11A7000A168A1100200A128A11A800A2
:1002E0000A168A1100200A128A11A9004308AA00DE
:1002F0004408AB004508AC000A128A15CC200A124B
:100300008A11831203132708C0002808C100290896
:10031000C2000030A7000030A8003F30A90040080C
:10032000AA004108AB004208AC000A128A15CC2092
:10033000831203132708B7002808B8002908B9005A
:1003400008000B304602031C332A0330BA003A0877
:10035000A4004608BB00BC013B08F2003C08F300C7
:100360000A30F0000030F1000A168A1131250A1215
:100370008A1170080A168A11D2240A128A11613E63
:10038000840090300318013E83120313FF000A1605
:100390008A1100200A128A11A7000A168A11002069
:1003A0000A128A11A8000A168A1100200A128A115C
:1003B000A9000330BD003D08A4000A30F70000305A
:1003C000F8004608BE00BF013E08F9003F08FA00E9
:1003D0000A168A11C8250A128A117708093E0A16D8
:1003E0008A11D2240A128A11613E840090300318C7
:1003F000013E83120313FF000A168A1100200A121D
:100400008A11AA000A168A1100200A128A11AB006A
:100410000A168A1100200A128A11AC000A128A15E3
:10042000CC200A128A11831203132708C30028085C
:10043000C4002908C5000030A7000030A8003F30E4
:10044000A9004308AA004408AB004508AC000A1202
:100450008A15CC20831203132708B7002808B80098
:100460002908B90008000030A7000030A8003F307C
:10047000A9000330BA003A08A40046080A168A11F7
:10048000D2240A128A11613E840090300318013E82
:1004900083120313FF000A168A1100200A128A1120
:1004A000AA000A168A1100200A128A11AB000A1645
:1004B0008A1100200A128A11AC000A128A15CC2077
:1004C000831203132708B7002808B8002908B900C9
:1004D00008005C3083120313DF005F0883160313E8
:1004E000A300831203135B08E0005A08DF00DA0A56
:1004F0000319DB0A6008FF005F0884000A168A11EE
:1005000000200A128A11E100610883160313B50066
:10051000350803190800253035060319962A3508D1
:100520000A128A1501200A128A11712A83160313EE
:10053000A401A5019D2A2515B92A831203135B087E
:10054000E0005A08DF00DA0A0319DB0A6008FF003E
:100550005F0884000A168A1100200A128A11831685
:100560000313B500003A0319C92F663A03199B2AF1
:10057000712A0030240583120313DF00073083162D
:100580000313250583120313E0005F0860040319B9
:10059000B02F063083160313A6000030A7002308EF
:1005A000840083130008B200840A0008B300840AA0
:1005B0000008B400033083120313DF005F088316C2
:1005C0000313A3073208F0003308F1003408F200E7
:1005D0000030F3000030F4000030F5000A168A11F4
:1005E00023260A128A1103180E2B831603133208CE
:1005F000F0003308F1003408F2000A168A11CA2408
:100600000A128A11700883160313B2007108B3002E
:100610007208B4000330A4040030A5048316031349
:10062000AC01AD013408330432040319022CB2309A
:1006300084008313000883120313DF00840A000878
:10064000E000840A0008E100840A0008E2000F309C
:100650000310E20CE10CE00CDF0CFF3E031D282B25
:10066000FF305F05E30000306005E4006308823E70
:1006700083160313AC008312031364080318013EAE
:10068000FF3E83160313AD00FF30AC070318AD0A1D
:10069000FF30AD070330F0000030F1002D08F3000B
:1006A0002C08F2000A128A1108200A128A11710815
:1006B00083160313AD007008AC000A30F700003059
:1006C000F8002D08FA002C08F9000A168A11C8252E
:1006D0000A128A11780883160313AD007708AC005C
:1006E000AD1F782BFF30AC070318AD0AFF30AD0704
:1006F0002C03FF3A0A128A1535250A128A11831231
:100700000313370883160313AE008312031338084C
:1007100083160313AF0083120313390883160313E0
:10072000B000320883120313A700831603133308A3
:1007300083120313A80083160313340883120313D0
:10074000A900831603132E0883120313AA0083162D
:1007500003132F0883120313AB008316031330080F
:1007600083120313AC000A128A15CC200A128A11D4
:1007700083120313270883160313AE008312031397
:10078000280883160313AF00831203132908831666
:100790000313B0002E08F0002F08F1003008F2001B
:1007A0000030F3008030F4003F30F5000A168A1163
:1007B00023260A128A110318E52BFF308316031330
:1007C000AC070318AD0AFF30012C831603132E0863
:1007D000F0002F08F1003008F2000030F300203064
:1007E000F4004130F5000A168A1123260A128A11F4
:1007F000031C022C013083160313AC070318AD0A47
:100800000030AD07831603132708803AFF008030BD
:100810007F02031D0D2C0D3026020318482C831671
:10082000031326080A128A11B7200A128A118312AA
:1008300003133708C7003808C8003908C9008316F1
:100840000313320883120313CA00831603133308F9
:1008500083120313CB00831603133408831203138C
:10086000CC000A128A159F210A128A1183120313DF
:10087000470883160313B200831203134808831634
:100880000313B30083120313490883160313B40040
:10089000831603132D08803AFF0080307F02031D6A
:1008A000532C0A302C020318862C831603133408A9
:1008B000330432040319DF2C320883120313C000FF
:1008C00083160313330883120313C1008316031323
:1008D000340883120313C2000A128A1129200A1253
:1008E0008A11831203134308420441044004031D88
:1008F000DF2C831603132D08803AFF0080307F021F
:10090000031D842C02302C02031CDF2C83160313DE
:100910002E08F0002F08F1003008F2007030F300CC
:100920008930F4004030F5000A168A1123260A1295
:100930008A1103189D2CF7309E2CF8308316031370
:10094000AC070318AD0AFF30AD072C080A128A1550
:1009500035250A128A1183120313370883160313ED
:10096000AE0083120313380883160313AF008312FB
:100970000313390883160313B0003208F00033085C
:10098000F1003408F2002E08F3002F08F4003008BC
:10099000F5000A128A1509200A128A1173088316B3
:1009A0000313AB007208AA007108A9007008A80020
:1009B0000030B2000030B3000030B4004E2D83167A
:1009C0000313320883120313C00083160313330882
:1009D00083120313C1008316031334088312031315
:1009E000C2000A128A1129200A128A1183120313E3
:1009F000430883160313AB008312031342088316C4
:100A00000313AA0083120313410883160313A900DA
:100A100083120313400883160313A8002B08FB005E
:100A20002A08FA002908F9002808F8000A168A118D
:100A300006250A128A11780883120313D400790854
:100A4000D5007A08D60083160313320883120313E5
:100A5000D70083160313330883120313D8008316B9
:100A60000313340883120313D9000A168A11E524EC
:100A70000A128A1183120313540883160313B20057
:100A800083120313550883160313B3008312031351
:100A9000560883160313B400AC01AD01B501B50AC5
:100AA0000A3035060319A82D350883120313DF0019
:100AB00001300310DF0DFF3E031D592D03105F0DA4
:100AC000123E840090300318013EFF000A168A117E
:100AD00000200A128A11E0000A168A1100200A1268
:100AE0008A11E1000A168A1100200A128A11E20016
:100AF0000A168A1100200A128A11E300630883167D
:100B000003132B02031D9A2D83120313620883160D
:100B100003132A02031D9A2D8312031361088316FF
:100B200003132902031D9A2D8312031360088316F1
:100B300003132802031CA82D013083120313DF00C6
:100B40005F0883160313B5070A303506031D542DBD
:100B50000330240583120313DF00003083160313D0
:100B6000250583120313E0005F0860040319BE2DFE
:100B70002D300A128A1501200A128A11FF308312C1
:100B80000313DF005F0883160313B507350A031943
:100B90003E2E83160313350883120313DF00013042
:100BA0000310DF0DFF3E031DD02D03105F0D123E1D
:100BB000840090300318013EFF000A168A110020BD
:100BC0000A128A11F0000A168A1100200A128A11EC
:100BD000F1000A168A1100200A128A11F2000A1680
:100BE0008A1100200A128A11F300831603132B08BE
:100BF000F7002A08F6002908F5002808F4000A166C
:100C00008A1180260A128A11730883160313B10011
:100C10007208B0007108AF007008AE000030F30039
:100C20000030F2000030F1000A30F0003108F70027
:100C30003008F6002F08F5002E08F4000A168A1175
:100C40007C250A128A11730883160313B1007208F7
:100C5000B0007108AF007008AE002E08303EB92D0C
:100C600030300A128A1501200A128A11FF308316C9
:100C70000313AC070318AD0AFF30AD072D08803A07
:100C8000FF0080307F02031D472E01302C02031825
:100C9000302E831603132708803AFF0080307F022E
:100CA000031D542E09302602031C582E08305B2EDB
:100CB00083160313260883120313DF005F088316CD
:100CC0000313B500350883120313DF00E001DF1BB7
:100CD000E0035F0883160313A60283120313600860
:100CE00083160313031CA703A702350803197E2EDE
:100CF0002E300A128A1501200A128A118316031354
:100D000035080A128A1535250A128A11831203132F
:100D1000370883160313A0008312031338088316C1
:100D20000313A10083120313390883160313A200CF
:100D3000200883120313AA008316031321088312C9
:100D40000313AB0083160313220883120313AC00B2
:100D500083160313320883120313A70083160313A9
:100D6000330883120313A800831603133408831275
:100D70000313A9000A128A15CC200A128A118312C1
:100D800003132708C0002808C1002908C2000A125E
:100D90008A1129200A128A11831203134308831629
:100DA0000313AB0083120313420883160313AA0034
:100DB00083120313410883160313A900831203133C
:100DC000400883160313A800FF3083120313DF00CB
:100DD0005F0883160313B507350A0319AB2F3508CF
:100DE00083120313DF0001300310DF0DFF3E031DEC
:100DF000F42E03105F0D123E840090300318013E64
:100E0000FF000A168A1100200A128A11F0000A1641
:100E10008A1100200A128A11F1000A168A11002094
:100E20000A128A11F2000A168A1100200A128A1187
:100E3000F300831603132B08F7002A08F60029088D
:100E4000F5002808F4000A168A1180260A128A1171
:100E5000730883160313B1007208B0007108AF0065
:100E60007008AE000030F3000030F2000030F100F6
:100E70000A30F0003108F7003008F6002F08F500BE
:100E80002E08F4000A168A117C250A128A117308AA
:100E900083160313B1007208B0007108AF00700828
:100EA000AE002E08303E0A128A1501200A128A115D
:100EB00083160313350883120313DF000130031078
:100EC000DF0DFF3E031D5F2F03105F0D123E8400F8
:100ED00090300318013EFF000A168A1100200A1202
:100EE0008A11F0000A168A1100200A128A11F100F4
:100EF0000A168A1100200A128A11F2000A168A11B3
:100F000000200A128A11F300831603132B08F7003E
:100F10002A08F6002908F5002808F4000A168A11A4
:100F20007C250A128A11730883160313AB0072081A
:100F3000AA007108A9007008E32E30300A128A1541
:100F400001200A128A11FF3083160313A607031823
:100F5000A70AFF30A707260827040319712A9D2F27
:100F6000033083160313240583120313DF000030BC
:100F700083160313250583120313E0005F08600442
:100F80000319712A2D300A128A1501200A128A11BA
:100F9000712A08000A168A11BD240A128A11E50076
:100FA0000A168A11BE240A128A11E6000A168A114C
:100FB000BF240A128A11E7000A168A11C0240A12F5
:100FC0008A11E8000A168A11C1240A128A11E9005E
:100FD0000A168A11C224EA0083160313B601B70168
:100FE000B801B901BA01BB01BC01BD01BE01831248
:100FF0000313EB01EC01ED0183010A128A15DA2BD0
:10100200F000831203130C1E0228700899000800D6
:101012007008F6007108F7007208F8000310770DE7
:10102200780DF900790883120313A5002508031D22
:1010320023280030F3000030F2000030F1000030CD
:10104200F00008007308F6007408F7007508F8004D
:101052000310770D780DF9007908A4002408031D08
:101062003B280030F3000030F2000030F100003085
:10107200F0000800F117FF30F005FF30F1050030F5
:10108200F205F417FF30F305FF30F4050030F505E3
:101092000030A3000030A2000030A1000030A00008
:1010A2007F30A50298302407F6007608A502183092
:1010B200F6007608A4000130F6000310A00DA10D81
:1010C200A20DA30DF60B5E2875087202031D6F2890
:1010D20074087102031D6F2873087002031C7C28B8
:1010E2007308F0027408031C740FF1027508031CE4
:1010F200750AF202201401300310F00DF10DF20D09
:10110200FF3E031D7D280130A402031D5C28A51F9C
:10111200A8282508803A973E031898280030F30043
:101122000030F2000030F1000030F0000800013021
:101132000310A30CA20CA10CA00CFF3E031D9928C6
:101142000130F6007608A5070319C328982818303D
:101152002502031CC0280030F3000030F2000030EA
:10116200F1000030F00008000130F6000310A00D7D
:10117200A10DA20DA30DF60BB7280130A50225087B
:10118200031DB5282308F3002208F2002108F1000C
:101192002008F0000800831203132708AD00280876
:1011A200AE002908AF0003102E0D2F0DB00030083D
:1011B200B1003108031DE4280030A7000030A80068
:1011C2000030A90008002A08AD002B08AE002C0848
:1011D200AF0003102E0D2F0DB0003008B6003608F8
:1011E200031DFA280030A7000030A8000030A90033
:1011F200080036087B3EAD002D08B1072708AD0078
:101202002808AE002908AF0010300310AF0CAE0C56
:10121200AD0CFF3E031D06292D08B0003008B600B4
:101222002A08AD002B08AE002C08AF0010300310C6
:10123200AF0CAE0CAD0CFF3E031D18292D08B000FB
:101242003008B6068030AD002D08B605A817AB17DA
:10125200FF30AA05FF30AB050030AC050030B2000C
:101262000030B3000030B4000730AD002D08B500E7
:10127200271C49292A08B2072B08031103182B0A35
:10128200031DB3072C08031103182C0A031DB4070E
:1012920001300310A90CA80CA70CFF3E031D4A291C
:1012A20001300310AA0DAB0DAC0DFF3E031D5229F8
:1012B2000130B502031D39290930AD002D08B500F2
:1012C200271C71292A08B2072B08031103182B0ABD
:1012D200031DB3072C08031103182C0A031DB407BE
:1012E20001300310A90CA80CA70CFF3E031D7229A4
:1012F20001300310B40CB30CB20CFF3E031D7A296B
:101302000130B502031D61293208F0003308F100F3
:101312003408F2003108AD002D08F3003608AE00A3
:101322002E08F4000A168A11DE26700883120313AF
:10133200A7007108A8007208A9000800831203130D
:101342004708CD004808CE004908CF0003104E0DD3
:101352004F0DD0005008D3004A08CD004B08CE00F4
:101362004C08CF0003104E0D4F0DD0005008D20094
:1013720053080319C829520853020318CF295303EB
:10138200FF3A5207CD0019304D02031CCF294A08FB
:10139200C7004B08C8004C08C900080052080319CE
:1013A2000800530852020318DE295203FF3A53077A
:1013B200CD0019304D02031808000630CD004D084B
:1013C200D100C91BD117CC1B5117C817FF30C70555
:1013D200FF30C8050030C905CB17FF30CA05FF3002
:1013E200CB050030CC055208530203181E2A0130E7
:1013F2000310CA0DCB0DCC0DFF3E031DF9290130A0
:10140200D202520853060319192A0130D102510897
:1014120007390319192AF82901300310C90CC80C1D
:10142200C70CFF3E031D0E2A0130CD004D08D30725
:10143200530852060319472A0D2A53085202031869
:10144200472A01300310C70DC80DC90DFF3E031D09
:10145200232A0130D302520853060319432A0130CA
:10146200D102510807390319432A222A01300310F5
:10147200CC0CCB0CCA0CFF3E031D382A0130CD0028
:101482004D08D20753085206031D372AD11F592A85
:10149200FF30C706FF30C806FF30C9060130C70754
:1014A200003003180130C807003003180130C907A3
:1014B200511F6B2AFF30CA06FF30CB06FF30CC0625
:1014C2000130CA07003003180130CB07003003187F
:1014D2000130CC07D1014708CA0748080311031895
:1014E200480A031DCB07490803110318490A031DC3
:1014F200CC07CC1F8E2AFF30CA06FF30CB06FF3046
:10150200CC060130CA07003003180130CB07003087
:1015120003180130CC07D101D10A4A08F0004B0868
:10152200F1004C08F2005308CD004D08F3005108B9
:10153200CE004E08F4000A168A11DE2670088312C5
:101542000313C7007108C8007208C9000800703090
:1015520084000008F600840A0008F700840A0008E4
:10156200F800840A0008F9000310780D790DFA00DA
:101572007A0883120313A5002508031DC92A003027
:10158200F3000030F2000030F1000030F0000800FB
:10159200733084000008F600840A0008F700840A09
:1015A2000008F800840A0008F9000310780D790D8C
:1015B200FA007A08A4002408031DE82A0030F30088
:1015C2000030F2000030F1000030F000080070300E
:1015D200840000308004840A00308004840A803051
:1015E2008004840A0030800470308400FF3080055B
:1015F200840AFF308005840AFF308005840A0030A7
:1016020080057330840000308004840A0030800436
:10161200840A80308004840A00308004733084009D
:10162200FF308005840AFF308005840AFF30800580
:10163200840A003080050030A3000030A200003090
:10164200A1000030A0007F30A502A0302407F600E0
:101652007608A5022030F6007608A4000130F600D4
:101662000310A00DA10DA20DA30DF60B312B7330AB
:1016720084000008F600840A0008F700840A0008C3
:10168200F800840A0008F900703084000008FA00AB
:10169200840A0008FB00840A0008FC00840A00088F
:1016A200FD0079087D02031D602B78087C02031D72
:1016B200602B77087B02031D602B76087A02031CDD
:1016C200852B733084000008F600840A0008F700B6
:1016D200840A0008F800840A0008F90070308400C7
:1016E20076088002840A7708031C770F8002840A36
:1016F2007808031C780F8002840A7908031C790A8F
:101702008002033084022014703084000310800DA4
:10171200840A800D840A800D840A800D8403840368
:1017220084030130A402031D2F2BA51FB62B25080D
:10173200803A9F3E0318A62B0030F3000030F200DF
:101742000030F1000030F000080001300310A30C5B
:10175200A20CA10CA00CFF3E031DA72B0130F6002A
:101762007608A5070319D12BA62B20302502031CCE
:10177200CE2B0030F3000030F2000030F1000030D8
:10178200F00008000130F6000310A00DA10DA20D1B
:10179200A30DF60BC52B0130A5022508031DC32B93
:1017A2002308F3002208F2002108F1002008F000CB
:1017B2000800FF3083160313860083120313860189
:1017C2000A168A11C3240A128A15303083120313AF
:1017D200DA009130DB000A128A1169220A128A1594
:1017E200B23083120313DA009030DB000A128A113E
:1017F20069220A128A15DC3083120313DA00903050
:10180200DB000A128A1169220A128A1588308312B1
:101812000313DA009030DB000A128A1169220A12DD
:101822008A15063083120313DA009130DB000A12A4
:101832008A1169220A128A15303083120313DA00E0
:101842009130DB000A128A1169220A128A15831268
:1018520003136508C7006608C8006708C90068085E
:10186200CA006908CB006A08CC000A128A159F21B7
:101872000A128A15831203134708EB004808EC008A
:101882004908ED006808C7006908C8006A08C9006D
:101892006508F0006608F1006708F2000A168A116E
:1018A200CA240A128A15700883120313CA00710827
:1018B200CB007208CC000A128A159F210A128A15DF
:1018C20083120313470883160313BC008312031306
:1018D200480883160313BD008312031349088316B5
:1018E2000313BE00831203136508A7006608A8004D
:1018F2006708A9006808AA006908AB006A08AC007A
:101902000A128A15CC200A128A1583120313270899
:1019120083160313B90083120313280883160313D3
:10192200BA0083120313290883160313BB00831220
:1019320003136508F8006608F9006708FA006808EA
:10194200FB006908FC006A08FD000A168A114A2792
:101952000A128A15780883160313B6007908B700AD
:101962007A08B80083120313061CC62CF030DA0082
:101972009130DB006B08DC006C08DD006D08DE00D6
:101982000A128A1169220A128A1583120313861C0B
:10199200E52CCF30DA009130DB00831603133C08CC
:1019A20083120313DC00831603133D08831203130F
:1019B200DD00831603133E0883120313DE000A12AE
:1019C2008A1169220A128A1583120313061D042D35
:1019D2005A30DA009130DB00831603133908831280
:1019E2000313DC00831603133A0883120313DD008A
:1019F200831603133B0883120313DE000A128A11B3
:101A020069220A128A1583120313861DE12B6708C5
:101A120066046504031D172D8430DA009130DB0063
:101A22000A128A1169220A128A15E12BAB3083123B
:101A32000313DA009130DB00831603133608831296
:101A42000313DC0083160313370883120313DD002C
:101A520083160313380883120313DE000A128A1155
:101A620069220A128A15E12B83120313BF00BF1FDA
:101A72009E2EBF09BF0A3F08803A123E031C052E64
:101A82000330BA003A08A4000A30F7000030F80028
:101A92003F08F200F301F21BF3036430F000003060
:101AA200F1000A168A1131250A128A157108FA0004
:101AB2007008F9000A168A11C8250A128A157708D1
:101AC200093E0A168A11D2240A128A15613E84003E
:101AD20090300318013E83120313FF000A168A1185
:101AE20000200A128A15A7000A168A1100200A127B
:101AF2008A15A8000A168A1100200A128A15A9005E
:101B02000330BB003B08A4006430F7000030F8004B
:101B12003F08F900FA01F91BFA030A168A11C825CF
:101B22000A128A157708123E0A168A11D2240A125C
:101B32008A15613E840090300318013E831203131C
:101B4200FF000A168A1100200A128A15AA000A1634
:101B52008A1100200A128A15AB000A168A11002087
:101B62000A128A15AC000A128A15CC200A128A15AA
:101B7200831203132708BC002808BD002908BE00F1
:101B82000330BA003A08A4003F08F200F301F21B46
:101B9200F3030A30F0000030F1000A168A113125F1
:101BA2000A128A1570080A168A11D2240A128A1594
:101BB200613E840090300318013E83120313FF003C
:101BC2000A168A1100200A128A15A7000A168A111B
:101BD20000200A128A15A8000A168A1100200A1289
:101BE2008A15A9003C08AA003D08AB003E08AC00DB
:101BF2000A128A15CC20831203132708B70028087B
:101C0200B8002908B90008003F08803A753E031C55
:101C12007B2E0330BA003A08A4003F08F200F30119
:101C2200F21BF3030A30F0000030F1000A168A11A9
:101C320031250A128A1570080A168A11D2240A124C
:101C42008A15613E840090300318013E831203130B
:101C5200FF000A168A1100200A128A15A7000A1626
:101C62008A1100200A128A15A8000A168A11002079
:101C72000A128A15A9000330BB003B08A4000A30EF
:101C8200F7000030F8003F08F900FA01F91BFA03E7
:101C92000A168A11C8250A128A157708093E0A16F9
:101CA2008A11D2240A128A15613E840090300318E8
:101CB200013E83120313FF000A168A1100200A1242
:101CC2008A15AA000A168A1100200A128A15AB0088
:101CD2000A168A1100200A128A15AC000A128A1505
:101CE200CC20831203132708B7002808B80029085C
:101CF200B90008000330BA003A08A4003F080A16E7
:101D02008A11D2240A128A15613E84009030031887
:101D1200013E83120313FF000A168A1100200A12E1
:101D22008A15B7000A168A1100200A128A15B8000D
:101D32000A168A110020B90008003F08803A123EB4
:101D4200031C672F0330BA003A08A4000A30F700D8
:101D52000030F8003F08F200F301F21BF303643095
:101D6200F0000030F1000A168A1131250A128A1594
:101D72007108FA007008F9000A168A11C8250A12B9
:101D82008A157708093E0A168A11D2240A128A1580
:101D92003A3E840090300318013E83120313FF0081
:101DA2000A168A1100200A128A15A7000A168A1139
:101DB20000200A128A15A8000A168A1100200A12A7
:101DC2008A15A9000330BB003B08A4006430F70069
:101DD2000030F8003F08F900FA01F91BFA030A166D
:101DE2008A11C8250A128A157708123E0A168A1124
:101DF200D2240A128A153A3E840090300318013E1A
:101E020083120313FF000A168A1100200A128A1590
:101E1200AA000A168A1100200A128A15AB000A16B5
:101E22008A1100200A128A15AC000A128A15CC20E7
:101E32000A128A15831203132708BC002808BD0062
:101E42002908BE000330BA003A08A4003F08F20095
:101E5200F301F21BF3030A30F0000030F1000A161E
:101E62008A1131250A128A1570080A168A11D2249B
:101E72000A128A153A3E840090300318013E8312FA
:101E82000313FF000A168A1100200A128A15A700FE
:101E92000A168A1100200A128A15A8000A168A1147
:101EA20000200A128A15A9003C08AA003D08AB00CE
:101EB2003E08AC000A128A15CC20831203132708AD
:101EC200B7002808B8002908B90008003F08803A7E
:101ED200753E031CDD2F0330BA003A08A4003F0808
:101EE200F200F301F21BF3030A30F0000030F100BC
:101EF2000A168A1131250A128A1570080A168A11E1
:101F0200D2240A128A153A3E840090300318013E08
:101F120083120313FF000A168A1100200A128A157F
:101F2200A7000A168A1100200A128A15A8000A16AA
:101F32008A1100200A128A15A9000330BB003B084F
:101F4200A4000A30F7000030F8003F08F900FA0157
:101F5200F91BFA030A168A11C8250A128A1577088C
:101F6200093E0A168A11D2240A128A153A3E8400C0
:101F720090300318013E83120313FF000A168A11E0
:101F820000200A128A15AA000A168A1100200A12D3
:101F92008A15AB000A168A1100200A128A15AC00B3
:101FA2000A128A15CC20831203132708B7002808C7
:101FB200B8002908B90008000330BA003A08A400A2
:101FC2003F080A168A11D2240A128A153A3E840060
:101FD20090300318013E83120313FF000A168A1180
:101FE20000200A128A15B7000A168A1100200A1266
:101FF2008A15B8000A168A110020B9000800FF1BD2
:102002000A2883137F1883170008840A0319FF0A1A
:1020120008007F087F398A000408840A0319FF0A2E
:10202200820001340034003400340A3400340034B5
:1020320000346434003400340034E83403340034AF
:1020420000341034273400340034A0348634013490
:102052000034403442340F3400348034963498349F
:1020620000340034E134F53405340034CA349A348F
:102072003B34003480343F34003420344134003463
:10208200C834423400347A34443440341C34463444
:102092005034C334473424347434493497341834B4
:1020A2004B34BC34BE344C346B346E344E34033453
:1020B200153450347934AD346034F33449347134E6
:1020C200003480343F34CD34CC343D34D7342334DF
:1020D2003C34123483343A34B734D1343834C634CD
:1020E20027343734383486343534C034D634333434
:1020F200CC342B343234703489343034E734DB342A
:102102002E34E5343C341E344234A2340D342A34A5
:102112002A342A342A342A342034203433342E34D4
:10212200283452344234323429342E3420344D345B
:1021320075346C347434693470346C346934633497
:102142006134633469346F346E34203420342A3479
:102152002A342A342A342A342A342A342A340A34AD
:1021620000342A342A342A342A342A342A342034B1
:102172002034203420342034203431342E34283496
:1021820052344234303429342E34203453347534AA
:102192006D3461342034203420342034203420340F
:1021A2002A342A342A342A342A342A342A342A343D
:1021B2002A340A3400342A342A342A342A342A3477
:1021C2002A34203420342034203420342034323451
:1021D2002E34283452344234313429342E342034CB
:1021E20052346534733474346134203420342034EE
:1021F200203420342A342A342A342A342A342A3401
:102202002A342A342A340A3400342A342A342A3426
:102212002A342A342A3420342034203420342034FE
:1022220034342E34283452344234333429342E3464
:1022320020344434693476346934733469346F3405
:102242006E342034203420342A342A342A342A3476
:102252002A342A342A342A342A340A3400342A34D6
:102262002A342A342A342A342A342A342A342A347C
:102272002A342A342A342A342A342A342A342A346C
:102282002A342A342A342A342A342A342A342A345C
:102292002A342A342A342A342A342A342A342A344C
:1022A2002A342A342A342A342A342A342A340A345C
:1022B200003445346C3420347234653473347534EC
:1022C2006C347434613464346F342034643465346F
:1022D20020346C34613420344D3475346C347434AD
:1022E200693470346C34693463346134633469340E
:1022F2006F346E342034653473343A3420342534E8
:1023020066340A3400344534723472346F347234B1
:102312002C3420346E346F342034653473342034DA
:1023220070346F347334693462346C3465342034FD
:1023320064346934763469346434693472342034F0
:1023420065346E34743472346534203430342E344F
:102352000A34003445346C342034723465347334B6
:1023620075346C347434613464346F3420346434BE
:10237200653420346C346134203444346934763426
:102382006934733469346F346E3420346534733491
:102392003A342034253466340A34003445346C34FB
:1023A200203472346534733475346C34743461346B
:1023B20064346F3420346434653420346C346134D2
:1023C20020345234653473347434613420346534C7
:1023D20073343A342034253466340A3400344534B4
:1023E2006C34203472346534733475346C34743420
:1023F200613464346F3420346434653420346C3492
:1024020061342034533475346D346134203465348E
:0E24120073343A342034253466340A340034EE
:10297A000034A03440340034203441348316031325
:10298A0098168312031398170800720871047004CA
:10299A00031908008030F206080083120313A60008
:1029AA00A501261CDC2C2408FC007C08A5070310C2
:1029BA00A40D0310A60C2608031DD62C2508080012
:1029CA00831203135608550454040319EE2C80305D
:1029DA00D6065708C7005808C8005908C90054083D
:1029EA00CA005508CB005608CC000A128A159F2146
:1029FA00831203134708D4004808D5004908D600B3
:102A0A0008008E30FC007C08FD00FF307B050319AE
:102A1A001C2D01300310FB0CFA0CF90CF80CFF3ECC
:102A2A00031D0F2D0130FC007C08FD070A2D7808D4
:102A3A00F0007908F1007A08F2007D08FC007C08B1
:102A4A00F300F4010A168A11DE267008F8007108EC
:102A5A00F9007208FA000800F601F31F3B2DF2098B
:102A6A00F309F20A0319F30AF601F60AF11F422DD5
:102A7A00F009F109F00A0319F10A7008710403193F
:102A8A006F2DF501F50AF11B562D01300310F00DDB
:102A9A00F10DFF3E031D4B2D0130F4007408F507BC
:102AAA00482D71087302031D5C2D70087202031C05
:102ABA00642D7008F2027108031CF303F30201305B
:102ACA000310F10CF00CFF3E031D652D0130F502D9
:102ADA00031D562D76080319772DF209F309F20A18
:102AEA000319F30A7308F1007208F000080073086A
:102AFA007204710470040319BF2DF901F90AF31B5A
:102B0A00942D0130F8000310F00DF10DF20DF30DC4
:102B1A00F80B882D0130F8007808F907842D73081E
:102B2A007702031DA22D72087602031DA22D7108D9
:102B3A007502031DA22D70087402031CB22D7008C1
:102B4A00F4027108031C710FF5027208031C720F5C
:102B5A00F6027308031C730FF70201300310F30C1B
:102B6A00F20CF10CF00CFF3E031DB32D0130F902FB
:102B7A00031D942D7708F3007608F2007508F1001A
:102B8A007408F000080083120313A101F81FD42D62
:102B9A00F709F809F70A0319F80AA101A10AFA1FA5
:102BAA00DF2DF909FA09F90A0319FA0A0130FB00BB
:102BBA007B08A106A201A301770878040319162E3F
:102BCA00A001A00AF81BF52D01300310F70DF80D2E
:102BDA00FF3E031DEA2D0130FB007B08A007E72D0D
:102BEA0001300310A20DA30DFF3E031DF62D780838
:102BFA007A02031D022E77087902031C0B2E77082E
:102C0A00F9027808031CFA03FA02221401300310AD
:102C1A00F80CF70CFF3E031D0C2E0130A002031D19
:102C2A00F52D210803191E2EA209A309A20A0319C8
:102C3A00A30A2308F8002208F7000800F21F4A2E08
:102C4A000030F6000030F7008030F8007009F90013
:102C5A007109FA007209FB00F90A0319FA0A031941
:102C6A00FB0A7908F6077A0803187A0F3D2E3E2EDA
:102C7A00F7077B0803187B0F432E442EF8077608C4
:102C8A00F0007708F1007808F200F51F712E003085
:102C9A00F6000030F7008030F8007309F900740973
:102CAA00FA007509FB00F90A0319FA0A0319FB0A63
:102CBA007908F6077A0803187A0F642E652EF70743
:102CCA007B0803187B0F6A2E6B2EF8077608F30031
:102CDA007708F4007808F5008030F2068030F506AF
:102CEA0075087202031D080074087102031D0800AA
:102CFA007308700208000030FC000030FB0000304E
:102D0A00FA000030F90073087204710470040319A0
:102D1A00D52EFD01FD0AF31BA02E0130F800031089
:102D2A00F00DF10DF20DF30DF80B942E0130F800B1
:102D3A007808FD07902E0130F8000310F90DFA0DFE
:102D4A00FB0DFC0DF80BA22E73087702031DB72E9C
:102D5A0072087602031DB72E71087502031DB72E7D
:102D6A0070087402031CC82E7008F4027108031C50
:102D7A00710FF5027208031C720FF6027308031C26
:102D8A00730FF702791401300310F30CF20CF10CF3
:102D9A00F00CFF3E031DC92E0130FD02031DA02EBB
:102DAA007C08F3007B08F2007A08F1007908F00049
:102DBA00080073080319E62E720871047004031DD3
:102DCA00F92E0030F0000030F1000030F200080067
:102DDA000130F5007508F30701300310F20CF10C0D
:102DEA00F00CFF3E031DF22EFE3072050319142F5C
:102DFA00ED2E0130F5007508F3070130F0070030B9
:102E0A0003180130F107003003180130F2070130CE
:102E1A000310F20CF10CF00CFF3E031D0D2FFF30D6
:102E2A0072050319232FFE2E0130F302013003101D
:102E3A00F00DF10DF20DFF3E031D1C2FF11B292F82
:102E4A00023073020318192F7318312FFF30F0055F
:102E5A007F30F105FF30F2050310F30C7308F5001B
:102E6A00F601F70110300310F50DF60DF70DFF3ED0
:102E7A00031D382F7508F0047608F1047708F20468
:102E8A00740803190800F21708007B088312031359
:102E9A00A0007C08A1007D08A2000310210D220DCC
:102EAA00A3002308A8002808031D622F0030F80099
:102EBA000030F9000030FA0008007808A00079080C
:102ECA00A1007A08A2000310210D220DA3002308F5
:102EDA00A9002908031D782F0030F8000030F900F6
:102EEA000030FA0008000030A5000030A6000030CB
:102EFA00A70089302907A0002008A8027B08A000A3
:102F0A007C08A1007D08A20010300310A20CA10CBD
:102F1A00A00CFF3E031D8A2F2008A3002308A90046
:102F2A007808A0007908A1007A08A20010300310DE
:102F3A00A20CA10CA00CFF3E031D9C2F2008A3008D
:102F4A002308A9068030A0002008A905FC17FF3035
:102F5A00FB05FF30FC050030FD05F917FF30F805C9
:102F6A00FF30F9050030FA051830A0002008A40047
:102F7A0001300310A50DA60DA70DFF3E031DBE2FA0
:102F8A007A087D02031DCF2F79087C02031DCF2FFB
:102F9A0078087B02031CDC2F7808FB027908031CE3
:102FAA00790FFC027A08031C7A0AFD022514013003
:102FBA000310FB0DFC0DFD0DFF3E031DDD2F01303F
:102FCA00A402031DBD2F2508F0002608F1002708DA
:102FDA00F2002808A0002008F3002908A10021080F
:102FEA00F4000A168A11DE267008F8007108F90042
:062FFA007208FA00080055
:00000001FF
