:060000000A128A11D72F3D
:1000DA000034A034403400342034413483160313EE
:1000EA009816831203139817080072087104700493
:1000FA00031908008030F2060800F0008312031387
:10010A000C1E8328700899000800F100F0013A30AB
:10011A0071020318962830307102031C9628F001E8
:10012A00F00A700C0800F300F201731CA028700892
:10013A00F1007108F2070310F00D0310F30C7308B5
:10014A00031D9A2872080800F401F501701CB328EF
:10015A007208F4070318F50A7308F507013003104B
:10016A00F20DF30DFF3E031DB42801300310F10C0C
:10017A00F00CFF3E031DBB2870087104031DAB2859
:10018A007508F1007408F0000800F501F60170081E
:10019A00710403190129F701F70AF11BE02801305C
:1001AA000310F00DF10DFF3E031DD5280130F400B8
:1001BA007408F707D22801300310F50DF60DFF3E3B
:1001CA00031DE12871087302031DED2870087202ED
:1001DA00031CF6287008F2027108031CF303F302E9
:1001EA00751401300310F10CF00CFF3E031DF728C3
:1001FA000130F702031DE0287608F1007508F000C7
:10020A000800730803190E29720871047004031D8B
:10021A0021290030F0000030F1000030F20008001F
:10022A000130F5007508F30701300310F20CF10CE8
:10023A00F00CFF3E031D1A29FE30720503193C29F2
:10024A0015290130F5007508F3070130F007003071
:10025A0003180130F107003003180130F2070130AA
:10026A000310F20CF10CF00CFF3E031D3529FF3090
:10027A00720503194B2926290130F30201300310B4
:10028A00F00DF10DF20DFF3E031D4429F11B51291A
:10029A00023073020318412973185929FF30F005F7
:1002AA007F30F105FF30F2050310F30C7308F500F7
:1002BA00F601F70110300310F50DF60DF70DFF3EAC
:1002CA00031D60297508F0047608F1047708F20422
:1002DA00740803190800F21708007B088312031335
:1002EA00A0007C08A1007D08A2000310210D220DA8
:1002FA00A3002308A8002808031D8A290030F80053
:10030A000030F9000030FA0008007808A0007908E7
:10031A00A1007A08A2000310210D220DA3002308D0
:10032A00A9002908031DA0290030F8000030F900AF
:10033A000030FA0008000030A5000030A6000030A6
:10034A00A70089302907A0002008A8027B08A0007E
:10035A007C08A1007D08A20010300310A20CA10C99
:10036A00A00CFF3E031DB2292008A3002308A90000
:10037A007808A0007908A1007A08A20010300310BA
:10038A00A20CA10CA00CFF3E031DC4292008A30047
:10039A002308A9068030A0002008A905FC17FF3011
:1003AA00FB05FF30FC050030FD05F917FF30F805A5
:1003BA00FF30F9050030FA051830A0002008A40023
:1003CA0001300310A50DA60DA70DFF3E031DE6295A
:1003DA007A087D02031DF72979087C02031DF72993
:1003EA0078087B02031C042A7808FB027908031C9C
:1003FA00790FFC027A08031C7A0AFD0225140130DF
:10040A000310FB0DFC0DFD0DFF3E031D052A0130F7
:10041A00A402031DE5292508F0002608F100270893
:10042A00F2002808A0002008F3002908A1002108EA
:10043A00F4000A128A1106217008F8007108F900FE
:10044A007208FA000800780883120313A0007908DA
:10045A00A1007A08A2000310210D220DA30023088F
:10046A00A4002408031D402A0030F8000030F900D7
:10047A000030FA0008007B08A0007C08A1007D0873
:10048A00A2000310210D220DA3002308A9002908A8
:10049A00031D562A0030F8000030F9000030FA0037
:1004AA00080029087B3EA0002008A4077808A000BD
:1004BA007908A1007A08A20010300310A20CA10C3E
:1004CA00A00CFF3E031D622A2008A3002308A900EE
:1004DA007B08A0007C08A1007D08A2001030031050
:1004EA00A20CA10CA00CFF3E031D742A2008A30035
:1004FA002308A9068030A0002008A905F917FC17CF
:10050A00FF30FB05FF30FC050030FD050030A5007B
:10051A000030A6000030A7000730A0002008A8007D
:10052A00781CA52A7B08A5077C08031103187C0AF6
:10053A00031DA6077D08031103187D0A031DA707DB
:10054A0001300310FA0CF90CF80CFF3E031DA62A21
:10055A0001300310FB0DFC0DFD0DFF3E031DAE2AFD
:10056A000130A802031D952A0930A0002008A8001E
:10057A00781CCD2A7B08A5077C08031103187C0A7E
:10058A00031DA6077D08031103187D0A031DA7078B
:10059A0001300310FA0CF90CF80CFF3E031DCE2AA9
:1005AA0001300310A70CA60CA50CFF3E031DD62A8A
:1005BA000130A802031DBD2A2508F0002608F10013
:1005CA002708F2002408A0002008F3002908A10047
:1005DA002108F4000A128A1106217008F80071082D
:1005EA00F9007208FA000800780883120313A000C1
:1005FA007908A1007A08A2000310210D220DA30098
:10060A002308A6007B08A0007C08A1007D08A200A0
:10061A000310210D220DA3002308A50026080319A3
:10062A00222B250826020318292B2603FF3A250721
:10063A00A00019302002031C292B7B08F8007C0833
:10064A00F9007D08FA0008002508031908002608A1
:10065A0025020318382B2503FF3A2607A000193074
:10066A002002031808000630A0002008A400FA1B84
:10067A00A417FD1B2417F917FF30F805FF30F905F9
:10068A000030FA05FC17FF30FB05FF30FC0500308F
:10069A00FD05250826020318782B01300310FB0DEF
:1006AA00FC0DFD0DFF3E031D532B0130A50225084D
:1006BA0026060319732B0130A402240807390319EB
:1006CA00732B522B01300310FA0CF90CF80CFF3E75
:1006DA00031D682B0130A0002008A607260825065E
:1006EA000319A12B672B260825020318A12B013019
:1006FA000310F80DF90DFA0DFF3E031D7D2B013095
:10070A00A6022508260603199D2B0130A4022408F7
:10071A00073903199D2B7C2B01300310FD0CFC0CAF
:10072A00FB0CFF3E031D922B0130A0002008A507F9
:10073A0026082506031D912BA41FB32BFF30F806AC
:10074A00FF30F906FF30FA060130F80700300318C7
:10075A000130F907003003180130FA07241FC52BAE
:10076A00FF30FB06FF30FC06FF30FD060130FB07B9
:10077A00003003180130FC07003003180130FD0770
:10078A00A4017808FB07790803110318790A031DE5
:10079A00FC077A08031103187A0A031DFD07FD1FD7
:1007AA00E82BFF30FB06FF30FC06FF30FD06013068
:1007BA00FB07003003180130FC0700300318013032
:1007CA00FD07A401A40A7B08F0007C08F1007D085B
:1007DA00F2002608A0002008F3002408A10021083E
:1007EA00F4000A128A1106217008F8007108F9004B
:1007FA007208FA000800FF3083160313860083127A
:10080A00031386010A128A1173200A128A114230CE
:10081A0083120313A0008830A1000A128A113C2512
:10082A000A128A11B13083120313A0008830A10082
:10083A000A128A113C250A128A11D530831203132F
:10084A00A0008830A1000A128A113C250A128A11D6
:10085A008D3083120313A0008830A1000A128A1176
:10086A003C250A128A11F93083120313A00088303A
:10087A00A1000A128A113C250A128A1142308312F7
:10088A000313A0008830A1000A128A113C250A121B
:10089A008A1183120313061C7E2C3508F8003608C9
:1008AA00F9003708FA003808FB003908FC003A0852
:1008BA00FD000A128A11F9220A128A117808831293
:1008CA000313BB007908BC007A08BD005E30A000A3
:1008DA008930A100A830A2008930A3003B08A400F7
:1008EA003C08A5003D08A6000A128A113C250A12F6
:1008FA008A1183120313861CB92C3808F8003908A8
:10090A00F9003A08FA003508F0003608F10037080D
:10091A00F2000A128A117A200A128A117008FB0060
:10092A007108FC007208FD000A128A11F9220A12E3
:10093A008A11780883120313BB007908BC007A086D
:10094A00BD003F30A0008930A100A830A200893044
:10095A00A3003B08A4003C08A5003D08A6000A1213
:10096A008A113C250A128A1183120313061DE92CE7
:10097A003508F8003608F9003708FA003808FB008D
:10098A003908FC003A08FD000A128A1128220A12C4
:10099A008A11780883120313BB007908BC007A080D
:1009AA00BD001A30A0008830A100A830A20089300A
:1009BA00A3003B08A4003C08A5003D08A6000A12B3
:1009CA008A113C250A128A1183120313861D302DBF
:1009DA000030B5000030B6000030B70037083604E2
:1009EA0035040319012D6830A0008830A1000A12CD
:1009FA008A113C250A128A11831203133508F8005A
:100A0A003608F9003708FA003808FB003908FC00F4
:100A1A003A08FD000A128A1172210A128A1178080C
:100A2A0083120313BB007908BC007A08BD001D308D
:100A3A00A0008930A100A830A2008930A3003B0899
:100A4A00A4003C08A5003D08A6000A128A113C250C
:100A5A000A128A11072C7C3083120313A0008930F2
:100A6A00A1000A128A113C250A128A11072C223087
:100A7A00F800780883120313A800831203132108CD
:100A8A00F9002008F800A00A0319A10A7908FF0052
:100A9A00780884000A128A1500200A128A11FA00BC
:100AAA007A08B400340803190800253034060319FB
:100ABA00652D34080A128A1182200A128A11422DDF
:100ACA0083120313B101B201AD01AE01712DAD154F
:100ADA000130A0070318A10A2108FF00200884009A
:100AEA000A128A1500200A128A112D3A03196C2D4E
:100AFA007E2D2108FF00200884000A128A15002092
:100B0A000A128A110A128A118A200A128A11031CED
:100B1A00D02D83120313B101B2010A30F000003064
:100B2A00F100831203133208F3003108F2000A12AB
:100B3A008A11A9200A128A11710883120313B200BA
:100B4A007008B1002108FF00200884000A128A15E3
:100B5A0000200A128A11D03EF800FF300318003034
:100B6A00F9007808B1070318B20A7908B207013008
:100B7A00A0070318A10A2108FF00200884000A120E
:100B8A008A1500200A128A110A128A118A200A1268
:100B9A008A110318922D831203132108FF002008DB
:100BAA0084000A128A1500200A128A112E3A031D9D
:100BBA00162E2E170130A0070318A10AB301210827
:100BCA00FF00200884000A128A1500200A128A11DE
:100BDA000A128A118A200A128A11031CBD2E831254
:100BEA0003132108FF00200884000A128A15002036
:100BFA000A128A11F8000A30F9007908F00033085D
:100C0A000A128A1198200A128A117807D03EFA002D
:100C1A007A0883120313B3000130A0070318A10A4C
:100C2A00E42D83120313B301BD2E28088400831315
:100C3A000008AB00840A00088403AC000230F80004
:100C4A007808A8072B082C04031D2F2EA130AB000F
:100C5A008930AC00AF01B0012F082B0784002C08A3
:100C6A0003182C0AFF000A128A1500200A128A1198
:100C7A00003A0319472E0130AF070318B00A0030B3
:100C8A00B007312E330803195C2E3308F800F90136
:100C9A00F81BF90330087902031D552E2F08780234
:100CAA0003185C2E3308AF00B001AF1BB003320843
:100CBA003002031D622E31082F0203186B2E2F08F3
:100CCA00B1023008031CB203B2026D2EB101B201A7
:100CDA00AD1D762E992E20300A128A1182200A1210
:100CEA008A11FF3083120313B1070318B20AFF30C7
:100CFA00B207310A031D702E320A0319992E702E7B
:100D0A002C08FF002B0884000A128A1500200A12F8
:100D1A008A110A128A1182200A128A110130831258
:100D2A000313AB070318AC0A0130AF020030031CEF
:100D3A00B003B0022F0A031D852E300A031D852E2B
:100D4A00AD19AE2E422D20300A128A1182200A12C3
:100D5A008A11FF3083120313B1070318B20AFF3056
:100D6A00B207310A031DA82E320A0319422DA82EF2
:100D7A00831203132108F9002008F800A00A0319B6
:100D8A00A10A7908FF00780884000A128A1500204F
:100D9A000A128A11B400003A0319D62F703A0319BD
:100DAA00DD2E033A03191A2E0B3A0319DD2E422DB2
:100DBA002808840083130008A900840A0008AA00EE
:100DCA000230F8007808A8073308031DF42E290812
:100DDA002A04031DF42E0130F8007808B307B40181
:100DEA00B40A0430340603191F2F3408F8007807B0
:100DFA00123E840088300318013EFF000A128A1549
:100E0A0000200A128A11F9000A128A1500200A1211
:100E1A008A11FA007A082A02031D152F7908290275
:100E2A00031C1F2F0130F8007808B4070430340679
:100E3A00031DFA2E3408803AF8003308803AF80283
:100E4A0003182C2F3308F8007808B400382F330819
:100E5A00803AF8003408803AF8020318382F340828
:100E6A00F8007808B3003408F800F901F81BF90310
:100E7A007908803AFA003208803A7A02031D472F2D
:100E8A00310878020318572F831203133408F80025
:100E9A00F901F81BF9037808B1027908031CB203B7
:100EAA00B2025B2F83120313B101B201310832047B
:100EBA00031DAD19AD2F20300A128A1182200A12A1
:100ECA008A11FF3083120313B1070318B20AFF30E5
:100EDA00B207310832040319AD2F602F3308F80026
:100EEA007807123E840088300318013EFF000A1278
:100EFA008A1500200A128A11F0000A128A150020A7
:100F0A000A128A11F1002A08F3002908F2000A12CB
:100F1A008A11CA200A128A1170080F39F900790851
:100F2A0083120313A7002708903E84008930031810
:100F3A00013EFF000A128A1500200A128A11F800DF
:100F4A007808B40034080A128A1182200A128A1117
:100F5A00FF30F800780883120313B307330A031D1E
:100F6A00732FAD1D422D3208803AFF0080307F0278
:100F7A00031DC12F01303102031C422D20300A12F9
:100F8A008A1182200A128A11FF3083120313B107D1
:100F9A000318B20AFF30B207310832040319422D8E
:100FAA00C32F08000A128A116D200A128A11B5008D
:100FBA000A128A116E200A128A11B6000A128A11BE
:100FCA006F200A128A11B7000A128A1170200A12B7
:100FDA008A11B8000A128A1171200A128A11B900FC
:100FEA000A128A117220BA00BB01BC01BD01830139
:100FFA000A128A11002CFF1B0A2883137F188317F1
:10100A000008840A0319FF0A08007F087F398A004A
:10101A000408840A0319FF0A8200013400341034D8
:10102A000034003401340034103445346C34203434
:10103A0072346534733475346C34743461346434A2
:10104A006F3420346434653420346C346134203491
:10105A004D3475346C347434693470346C34693496
:10106A0063346134633469346F346E3420346534E4
:10107A0073343A3420340A3400342A342A342A3471
:10108A002A342A342A342A342A342A342A342A3466
:10109A002A342A342A342A342A342A342A342A3456
:1010AA002A342A342A342A342A342A342A342A3446
:1010BA002A342A342A342A342A342A342A342A3436
:1010CA002A340A3400344534723472346F34723438
:1010DA002C3420346E346F34203465347334203425
:1010EA0070346F347334693462346C346534203448
:1010FA00643469347634693464346934723420343B
:10110A0065346E34743472346534203430340034C7
:10111A002A342A342A342A342A34203420343334E0
:10112A002E3420344D3475346C347434693470344C
:10113A006C34693463346134633469346F346E34C3
:10114A00203420342A342A342A342A342A342A34B9
:10115A002A342A340A3400342A342A342A342A34DF
:10116A002A342A34203420342034203420342034C1
:10117A0031342E342034533475346D346134203490
:10118A00203420342034203420342A342A342A3497
:10119A002A342A342A342A342A342A340A3400349F
:1011AA002A342A342A342A342A342A342034203459
:1011BA00203420342034203432342E342034523433
:1011CA006534733474346134203420342034203448
:1011DA0020342A342A342A342A342A342A342A341F
:1011EA002A342A340A3400342A342A342A342A344F
:1011FA002A342A342034203420342034203434341D
:10120A002E3420344434693476346934733469347E
:10121A006F346E342034203420342A342A342A3469
:10122A002A342A342A342A342A342A340A3400340E
:10123A0045346C34203472346534733475346C3408
:10124A007434613464346F34203464346534203443
:10125A006C346134203444346934763469347334F8
:10126A0069346F346E342034653473343A3420343C
:10127A000A34003445346C3420347234653473349F
:10128A0075346C347434613464346F3420346434A7
:10129A00653420346C346134203452346534733408
:1012AA00743461342034653473343A3420340A3463
:1012BA00003445346C3420347234653473347534F4
:1012CA006C347434613464346F3420346434653477
:1012DA0020346C3461342034533475346D346134C1
:1012EA002034653473343A3420340A3400344F34A9
:1012FA007034633469346F346E34203449346E3454
:10130A0063346F34723472346534633474346134E0
:10131A000A342034003430343134323433343434FF
:10132A0035343634373438343934613462346334DA
:10133A00643465346634003428346E3475346C345D
:0C134A006C34293400342534663400343F
:00000001FF
