:100000000A128A11D92F7008F6007108F7007208D9
:10001000F8000310770D780DF900790883120313A7
:10002000A5002508031D1D280030F3000030F20054
:100030000030F1000030F00008007308F60074088A
:10004000F7007508F8000310770D780DF9007908AE
:10005000A4002408031D35280030F3000030F2000E
:100060000030F1000030F0000800F117FF30F0051B
:10007000FF30F1050030F205F417FF30F305FF30D3
:10008000F4050030F5050030A3000030A200003078
:10009000A1000030A0007F30A50298302407F600B0
:1000A0007608A5021830F6007608A4000130F600A4
:1000B0000310A00DA10DA20DA30DF60B5828750875
:1000C0007202031D692874087102031D69287308F0
:1000D0007002031C76287308F0027408031C740F66
:1000E000F1027508031C750AF20220140130031096
:1000F000F00DF10DF20DFF3E031D77280130A40233
:10010000031D5628A51FA2282508803A973E0318EC
:1001100092280030F3000030F2000030F10000308F
:10012000F000080001300310A30CA20CA10CA00CDD
:10013000FF3E031D93280130F6007608A50703193A
:10014000BD28922818302502031CBA280030F3007D
:100150000030F2000030F1000030F0000800013003
:10016000F6000310A00DA10DA20DA30DF60BB128F2
:100170000130A5022508031DAF282308F30022083B
:10018000F2002108F1002008F00008008312031398
:10019000C6006E304602031CB0290330BA003A088C
:1001A000A4000A30F7000030F8004608BB00BC018C
:1001B0003B08F2003C08F3006430F0000030F1002E
:1001C0000A168A1159250A128A117108FA00700854
:1001D000F9000A168A11F0250A128A117708093ED9
:1001E0000A128A1503200A128A11613E8400903097
:1001F0000318013E83120313FF000A168A11002020
:100200000A128A11A7000A168A1100200A128A11FE
:10021000A8000A168A1100200A128A11A9000330C8
:10022000BD003D08A4006430F7000030F800460827
:10023000BE00BF013E08F9003F08FA000A168A1105
:10024000F0250A128A117708123E0A128A15032035
:100250000A128A11613E840090300318013E831215
:100260000313FF000A168A1100200A128A11AA003D
:100270000A168A1100200A128A11AB000A168A1186
:1002800000200A128A11AC000A128A15CC200A1228
:100290008A11831203132708C3002808C400290801
:1002A000C5000330BA003A08A4004608BB00BC01F0
:1002B0003B08F2003C08F3000A30F0000030F10087
:1002C0000A168A1159250A128A1170080A128A150B
:1002D00003200A128A11613E840090300318013E07
:1002E00083120313FF000A168A1100200A128A11D2
:1002F000A7000A168A1100200A128A11A8000A16FD
:100300008A1100200A128A11A9004308AA00440891
:10031000AB004508AC000A128A15CC200A128A11DB
:10032000831203132708C0002808C1002908C2004F
:100330000030A7000030A8003F30A9004008AA0004
:100340004108AB004208AC000A128A15CC20831287
:1003500003132708B7002808B8002908B9000800C7
:100360000B304602031C422A0330BA003A08A400AC
:100370004608BB00BC013B08F2003C08F3000A3011
:10038000F0000030F1000A168A1159250A128A116C
:1003900070080A128A1503200A128A11613E84002D
:1003A00090300318013E83120313FF000A168A11CE
:1003B00000200A128A11A7000A168A1100200A12C8
:1003C0008A11A8000A168A1100200A128A11A900AF
:1003D0000330BD003D08A4000A30F7000030F800EB
:1003E0004608BE00BF013E08F9003F08FA000A16A1
:1003F0008A11F0250A128A117708093E0A128A1515
:1004000003200A128A11613E840090300318013ED5
:1004100083120313FF000A168A1100200A128A11A0
:10042000AA000A168A1100200A128A11AB000A16C5
:100430008A1100200A128A11AC000A128A15CC20F7
:100440000A128A11831203132708C3002808C40064
:100450002908C5000030A7000030A8003F30A900DF
:100460004308AA004408AB004508AC000A128A15EC
:10047000CC20831203132708B7002808B8002908E6
:10048000B90008000030A7000030A8003F30A900E4
:100490000330BA003A08A40046080A128A1503205D
:1004A0000A128A11613E840090300318013E8312C3
:1004B0000313FF000A168A1100200A128A11AA00EB
:1004C0000A168A1100200A128A11AB000A168A1134
:1004D00000200A128A11AC000A128A15CC2083125D
:1004E00003132708B7002808B8002908B900080036
:1004F0005C3083120313DF005F0883160313A3002D
:10050000831203135B08E0005A08DF00DA0A0319BC
:10051000DB0A6008FF005F0884000A168A110020C9
:100520000A128A11E100610883160313B500350829
:1005300003190800253035060319A52A35080A16BF
:100540008A11E4240A128A11802A83160313A40153
:10055000A501AC2A2515C82A831203135B08E00005
:100560005A08DF00DA0A0319DB0A6008FF005F0897
:1005700084000A168A1100200A128A1183160313B6
:10058000B500003A0319D82F663A0319AA2A802A1F
:100590000030240583120313DF0007308316031392
:1005A000250583120313E0005F0860040319BF2FC1
:1005B000063083160313A6000030A700230884002A
:1005C00083130008B200840A0008B300840A0008FC
:1005D000B400033083120313DF005F088316031394
:1005E000A3073208F0003308F1003408F2000030AD
:1005F000F3000030F4000030F5000A168A114B2693
:100600000A128A1103181D2B831603133208F000F7
:100610003308F1003408F2000A168A11DC240A12A9
:100620008A11700883160313B2007108B3007208B0
:10063000B4000330A4040030A50483160313AC01F6
:10064000AD013408330432040319112CB230840094
:100650008313000883120313DF00840A0008E000FC
:10066000840A0008E100840A0008E2000F30031049
:10067000E20CE10CE00CDF0CFF3E031D372BFF30DA
:100680005F05E30000306005E4006308823E8316E6
:100690000313AC008312031364080318013EFF3EEA
:1006A00083160313AD00FF30AC070318AD0AFF300B
:1006B000AD070330F0000030F1002D08F3002C08E6
:1006C000F2000A168A110D250A128A117108831682
:1006D0000313AD007008AC000A30F7000030F800DA
:1006E0002D08FA002C08F9000A168A11F0250A12C2
:1006F0008A11780883160313AD007708AC00AD1F8C
:10070000872BFF30AC070318AD0AFF30AD072C0371
:10071000FF3A0A128A1535250A128A118312031329
:10072000370883160313AE008312031338088316A9
:100730000313AF0083120313390883160313B000A9
:10074000320883120313A70083160313330883129E
:100750000313A80083160313340883120313A9009C
:10076000831603132E0883120313AA0083160313A0
:100770002F0883120313AB00831603133008831270
:100780000313AC000A128A15CC200A128A118312B4
:100790000313270883160313AE00831203132808DC
:1007A00083160313AF008312031329088316031360
:1007B000B0002E08F0002F08F1003008F2000030E1
:1007C000F3008030F4003F30F5000A168A114B2602
:1007D0000A128A110318F42BFF3083160313AC0797
:1007E0000318AD0AFF30102C831603132E08F000F7
:1007F0002F08F1003008F2000030F3002030F40040
:100800004130F5000A168A114B260A128A11031C80
:10081000112C013083160313AC070318AD0A003006
:10082000AD07831603132708803AFF0080307F024C
:10083000031D1C2C0D3026020318572C831603139E
:1008400026080A128A11C6200A128A11831203137B
:100850003708C7003808C8003908C90083160313D1
:10086000320883120313CA0083160313330883125A
:100870000313CB0083160313340883120313CC0035
:100880000A128A159F210A128A118312031347083C
:1008900083160313B200831203134808831603134D
:1008A000B30083120313490883160313B40083169D
:1008B00003132D08803AFF0080307F02031D622C55
:1008C0000A302C020318952C8316031334083304C2
:1008D00032040319EE2C320883120313C00083166E
:1008E0000313330883120313C10083160313340860
:1008F00083120313C2000A168A1172270A128A1180
:10090000831203134308420441044004031DEE2CE8
:10091000831603132D08803AFF0080307F02031DE9
:10092000932C02302C02031CEE2C831603132E088A
:10093000F0002F08F1003008F2007030F300893029
:10094000F4004030F5000A168A114B260A128A116B
:100950000318AC2CF730AD2CF83083160313AC071A
:100960000318AD0AFF30AD072C080A128A15352589
:100970000A128A1183120313370883160313AE0079
:1009800083120313380883160313AF008312031373
:10099000390883160313B0003208F0003308F10061
:1009A0003408F2002E08F3002F08F4003008F50098
:1009B0000A128A1103200A128A117308831603137C
:1009C000AB007208AA007108A9007008A8000030E6
:1009D000B2000030B3000030B4005D2D8316031365
:1009E000320883120313C0008316031333088312E3
:1009F0000313C10083160313340883120313C200C8
:100A00000A168A1172270A128A11831203134308E5
:100A100083160313AB0083120313420883160313D8
:100A2000AA0083120313410883160313A90083123B
:100A30000313400883160313A8002B08FB002A08A1
:100A4000FA002908F9002808F8000A168A112E254C
:100A50000A128A11780883120313D4007908D5008A
:100A60007A08D60083160313320883120313D700C3
:100A700083160313330883120313D800831603135A
:100A8000340883120313D9000A168A11EC240A12BF
:100A90008A1183120313540883160313B2008312BE
:100AA0000313550883160313B30083120313560868
:100AB00083160313B400AC01AD01B501B50A0A30C9
:100AC00035060319B72D350883120313DF000130F3
:100AD0000310DF0DFF3E031D682D03105F0D123E56
:100AE000840090300318013EFF000A168A1100208E
:100AF0000A128A11E0000A168A1100200A128A11CD
:100B0000E1000A168A1100200A128A11E2000A1670
:100B10008A1100200A128A11E30063088316031366
:100B20002B02031DA92D83120313620883160313DE
:100B30002A02031DA92D83120313610883160313D0
:100B40002902031DA92D83120313600883160313C2
:100B50002802031CB72D013083120313DF005F0846
:100B600083160313B5070A303506031D632D0330C2
:100B7000240583120313DF000030831603132505B9
:100B800083120313E0005F0860040319CD2D2D309C
:100B90000A168A11E4240A128A11FF308312031301
:100BA000DF005F0883160313B507350A03194D2EBE
:100BB00083160313350883120313DF00013003107B
:100BC000DF0DFF3E031DDF2D03105F0D123E84007D
:100BD00090300318013EFF000A168A1100200A1205
:100BE0008A11F0000A168A1100200A128A11F100F7
:100BF0000A168A1100200A128A11F2000A168A11B6
:100C000000200A128A11F300831603132B08F70041
:100C10002A08F6002908F5002808F4000A168A11A7
:100C2000A8260A128A11730883160313B1007208EA
:100C3000B0007108AF007008AE000030F300003063
:100C4000F2000030F1000A30F0003108F7003008FF
:100C5000F6002F08F5002E08F4000A168A11A425C4
:100C60000A128A11730883160313B1007208B000C8
:100C70007108AF007008AE002E08303EC82D30302D
:100C80000A168A11E4240A128A11FF30831603130C
:100C9000AC070318AD0AFF30AD072D08803AFF00FE
:100CA00080307F02031D562E01302C0203183F2E88
:100CB000831603132708803AFF0080307F02031D4C
:100CC000632E09302602031C672E08306A2E831615
:100CD0000313260883120313DF005F088316031330
:100CE000B500350883120313DF00E001DF1BE003CA
:100CF0005F0883160313A60283120313600883168A
:100D00000313031CA703A702350803198D2E2E30E9
:100D10000A168A11E4240A128A118316031335086D
:100D20000A128A1535250A128A118312031337080D
:100D300083160313A00083120313380883160313CA
:100D4000A10083120313390883160313A20020089D
:100D500083120313AA0083160313210883120313BB
:100D6000AB0083160313220883120313AC0083160F
:100D70000313320883120313A700831603133308E7
:100D800083120313A800831603133408831203137A
:100D9000A9000A128A15CC200A128A1183120313A1
:100DA0002708C0002808C1002908C2000A168A11B5
:100DB00072270A128A11831203134308831603133E
:100DC000AB0083120313420883160313AA00831295
:100DD0000313410883160313A90083120313400869
:100DE00083160313A800FF3083120313DF005F088C
:100DF00083160313B507350A0319BA2F3508831272
:100E00000313DF0001300310DF0DFF3E031D032F2E
:100E100003105F0D123E840090300318013EFF0066
:100E20000A168A1100200A128A11F0000A168A1185
:100E300000200A128A11F1000A168A1100200A12F3
:100E40008A11F2000A168A1100200A128A11F30090
:100E5000831603132B08F7002A08F6002908F5006B
:100E60002808F4000A168A11A8260A128A117308A3
:100E700083160313B1007208B0007108AF00700848
:100E8000AE000030F3000030F2000030F1000A3014
:100E9000F0003108F7003008F6002F08F5002E08A2
:100EA000F4000A168A11A4250A128A1173088316FF
:100EB0000313B1007208B0007108AF007008AE00F3
:100EC0002E08303E0A168A11E4240A128A1183166B
:100ED0000313350883120313DF0001300310DF0D05
:100EE000FF3E031D6E2F03105F0D123E84009030F5
:100EF0000318013EFF000A168A1100200A128A1107
:100F0000F0000A168A1100200A128A11F1000A164E
:100F10008A1100200A128A11F2000A168A11002092
:100F20000A128A11F300831603132B08F7002A080C
:100F3000F6002908F5002808F4000A168A11A425ED
:100F40000A128A11730883160313AB007208AA00F1
:100F50007108A9007008F22E30300A168A11E424B4
:100F60000A128A11FF3083160313A6070318A70A73
:100F7000FF30A707260827040319802AAC2F033067
:100F800083160313240583120313DF000030831636
:100F90000313250583120313E0005F08600403199F
:100FA000802A2D300A168A11E4240A128A11802A16
:100FB00008000A128A1500200A128A11EB000A1290
:100FC0008A1501200A128A11EC000A128A150220E1
:100FD000ED0083160313B601B701B801B901BA01D8
:100FE000BB01BC01BD01BE0183120313E501E60193
:100FF000E701E801E901EA0183010A128A15DA2B07
:1010000000342034413483120313A600A501261CAA
:101010000D282408FC007C08A5070310A40D03106C
:10102000A60C2608031D0728250808007B08831244
:101030000313A0007C08A1007D08A2000310210D6D
:10104000220DA3002308A8002808031D2E28003025
:10105000F8000030F9000030FA0008007808A0001D
:101060007908A1007A08A2000310210D220DA30027
:101070002308A9002908031D44280030F800003087
:10108000F9000030FA0008000030A5000030A6008A
:101090000030A70089302907A0002008A8027B089B
:1010A000A0007C08A1007D08A20010300310A20C53
:1010B000A10CA00CFF3E031D56282008A300230806
:1010C000A9007808A0007908A1007A08A2001030D1
:1010D0000310A20CA10CA00CFF3E031D68282008E1
:1010E000A3002308A9068030A0002008A905FC174A
:1010F000FF30FB05FF30FC050030FD05F917FF3020
:10110000F805FF30F9050030FA051830A000200876
:10111000A40001300310A50DA60DA70DFF3E031D71
:101120008A287A087D02031D9B2879087C02031D0A
:101130009B2878087B02031CA8287808FB02790802
:10114000031C790FFC027A08031C7A0AFD0225149D
:1011500001300310FB0DFC0DFD0DFF3E031DA92802
:101160000130A402031D89282508F0002608F1009B
:101170002708F2002808A0002008F3002908A10091
:101180002108F4000A168A1106277008F800710871
:10119000F9007208FA000800831203132708AD0053
:1011A0002808AE002908AF0003102E0D2F0DB00047
:1011B0003008B1003108031DE4280030A7000030DA
:1011C000A8000030A90008002A08AD002B08AE00D6
:1011D0002C08AF0003102E0D2F0DB0003008B60004
:1011E0003608031DFA280030A7000030A8000030A0
:1011F000A900080036087B3EAD002D08B10727087E
:10120000AD002808AE002908AF0010300310AF0C65
:10121000AE0CAD0CFF3E031D06292D08B0003008B2
:10122000B6002A08AD002B08AE002C08AF00103025
:101230000310AF0CAE0CAD0CFF3E031D18292D089A
:10124000B0003008B6068030AD002D08B605A817EE
:10125000AB17FF30AA05FF30AB050030AC050030FE
:10126000B2000030B3000030B4000730AD002D08EC
:10127000B500271C49292A08B2072B0803110318B7
:101280002B0A031DB3072C08031103182C0A031D96
:10129000B40701300310A90CA80CA70CFF3E031DD6
:1012A0004A2901300310AA0DAB0DAC0DFF3E031D02
:1012B00052290130B502031D39290930AD002D082E
:1012C000B500271C71292A08B2072B08031103183F
:1012D0002B0A031DB3072C08031103182C0A031D46
:1012E000B40701300310A90CA80CA70CFF3E031D86
:1012F000722901300310B40CB30CB20CFF3E031D75
:101300007A290130B502031D61293208F000330843
:10131000F1003408F2003108AD002D08F300360862
:10132000AE002E08F4000A168A11062770088312F0
:101330000313A7007108A8007208A900080083120F
:1013400003134708CD004808CE004908CF0003101A
:101350004E0D4F0DD0005008D3004A08CD004B0869
:10136000CE004C08CF0003104E0D4F0DD00050089A
:10137000D20053080319C829520853020318CF2971
:101380005303FF3A5207CD0019304D02031CCF29F9
:101390004A08C7004B08C8004C08C900080052089A
:1013A00003190800530852020318DE295203FF3ABA
:1013B0005307CD0019304D02031808000630CD0048
:1013C0004D08D100C91BD117CC1B5117C817FF30CE
:1013D000C705FF30C8050030C905CB17FF30CA0567
:1013E000FF30CB050030CC055208530203181E2AEB
:1013F00001300310CA0DCB0DCC0DFF3E031DF929A2
:101400000130D202520853060319192A0130D102C1
:10141000510807390319192AF82901300310C90C9A
:10142000C80CC70CFF3E031D0E2A0130CD004D082D
:10143000D307530852060319472A0D2A53085202AC
:101440000318472A01300310C70DC80DC90DFF3E10
:10145000031D232A0130D302520853060319432ADD
:101460000130D102510807390319432A222A0130D9
:101470000310CC0CCB0CCA0CFF3E031D382A0130E4
:10148000CD004D08D20753085206031D372AD11F3D
:10149000592AFF30C706FF30C806FF30C9060130A1
:1014A000C707003003180130C807003003180130A7
:1014B000C907511F6B2AFF30CA06FF30CB06FF3029
:1014C000CC060130CA07003003180130CB070030CA
:1014D00003180130CC07D1014708CA074808031197
:1014E0000318480A031DCB07490803110318490ACA
:1014F000031DCC07CC1F8E2AFF30CA06FF30CB0657
:10150000FF30CC060130CA07003003180130CB078A
:10151000003003180130CC07D101D10A4A08F0008D
:101520004B08F1004C08F2005308CD004D08F300C1
:101530005108CE004E08F4000A168A1106277008DA
:1015400083120313C7007108C8007208C90008009D
:10155000703084000008F600840A0008F700840A4E
:101560000008F800840A0008F9000310780D790DCE
:10157000FA007A0883120313A5002508031DC92A5F
:101580000030F3000030F2000030F1000030F000D5
:101590000800733084000008F600840A0008F70091
:1015A000840A0008F800840A0008F9000310780D86
:1015B000790DFA007A08A4002408031DE82A0030F7
:1015C000F3000030F2000030F1000030F0000800BD
:1015D0007030840000308004840A00308004840A63
:1015E00080308004840A0030800470308400FF3032
:1015F0008005840AFF308005840AFF308005840A54
:10160000003080057330840000308004840A00308C
:101610008004840A80308004840A0030800473309F
:101620008400FF308005840AFF308005840AFF3083
:101630008005840A003080050030A3000030A2003D
:101640000030A1000030A0007F30A502A0302407A8
:10165000F6007608A5022030F6007608A4000130D6
:10166000F6000310A00DA10DA20DA30DF60B312B5A
:10167000733084000008F600840A0008F700840A2A
:101680000008F800840A0008F9007030840000089F
:10169000FA00840A0008FB00840A0008FC00840A9F
:1016A0000008FD0079087D02031D602B78087C028C
:1016B000031D602B77087B02031D602B76087A02DE
:1016C000031C852B733084000008F600840A000890
:1016D000F700840A0008F800840A0008F900703056
:1016E000840076088002840A7708031C770F800242
:1016F000840A7808031C780F8002840A7908031C86
:10170000790A8002033084022014703084000310B0
:10171000800D840A800D840A800D840A800D840364
:10172000840384030130A402031D2F2BA51FB62BB5
:101730002508803A9F3E0318A62B0030F3000030A6
:10174000F2000030F1000030F0000800013003101A
:10175000A30CA20CA10CA00CFF3E031DA72B013073
:10176000F6007608A5070319D12BA62B20302502F9
:10177000031CCE2B0030F3000030F2000030F100EB
:101780000030F00008000130F6000310A00DA10D9C
:10179000A20DA30DF60BC52B0130A5022508031DD4
:1017A000C32B2308F3002208F2002108F1002008CF
:1017B000F0000800FF308316031386008312031322
:1017C00086010A168A11D5240A128A15303083122E
:1017D0000313DA009130DB000A128A1178220A1210
:1017E0008A15B23083120313DA009030DB000A123C
:1017F0008A1178220A128A15DC3083120313DA0068
:101800009030DB000A128A1178220A128A15883079
:1018100083120313DA009030DB000A128A11782257
:101820000A128A15063083120313DA009130DB00A6
:101830000A128A1178220A128A1530308312031391
:10184000DA009130DB000A128A1178220A128A1516
:10185000831203136808C7006908C8006A08C90032
:101860006B08CA006C08CB006D08CC000A128A1500
:101870009F210A128A15831203134708E5004808BE
:10188000E6004908E7006B08C7006C08C8006D084F
:10189000C9006808F0006908F1006A08F2000A1639
:1018A0008A11DC240A128A15700883120313CA00F5
:1018B0007108CB007208CC000A128A159F210A1207
:1018C0008A1583120313470883160313BC0083127F
:1018D0000313480883160313BD008312031349083A
:1018E00083160313BE00831203136808A700690858
:1018F000A8006A08A9006B08AA006C08AB006D0874
:10190000AC000A128A15CC200A128A15831203131E
:10191000270883160313B9008312031328088316BC
:101920000313BA0083120313290883160313BB00A1
:10193000831203136808F8006908F9006A08FA00BE
:101940006B08FB006C08FC006D08FD000A128A158C
:1019500016200A128A15780883160313B600790830
:10196000B7007A08B80083120313061CC62CF030A7
:10197000DA009130DB006508DC006608DD006708EE
:10198000DE000A128A1178220A128A1583120313C2
:10199000861CE52CCF30DA009130DB008316031370
:1019A0003C0883120313DC00831603133D088312E3
:1019B0000313DD00831603133E0883120313DE00B6
:1019C0000A128A1178220A128A1583120313061D3D
:1019D000042D5A30DA009130DB00831603133908E6
:1019E00083120313DC00831603133A0883120313D4
:1019F000DD00831603133B0883120313DE000A1273
:101A00008A1178220A128A1583120313861DE12B8C
:101A10006A0869046804031D172D8430DA009130C8
:101A2000DB000A128A1178220A128A15E12BAB30E8
:101A300083120313DA009130DB0083160313360898
:101A400083120313DC008316031337088312031376
:101A5000DD0083160313380883120313DE000A1215
:101A60008A1178220A128A15E12B83120313BF0010
:101A7000BF1F9E2EBF09BF0A3F08803A123E031CBB
:101A8000052E0330BA003A08A4000A30F7000030EF
:101A9000F8003F08F200F301F21BF3036430F0009A
:101AA0000030F1000A168A1159250A128A157108A8
:101AB000FA007008F9000A168A11F0250A128A1530
:101AC0007708093E0A128A1503200A128A15613E18
:101AD000840090300318013E83120313FF000A169E
:101AE0008A1100200A128A15A7000A168A110020FE
:101AF0000A128A15A8000A168A1100200A128A15ED
:101B0000A9000330BB003B08A4006430F70000309C
:101B1000F8003F08F900FA01F91BFA030A168A11C6
:101B2000F0250A128A157708123E0A128A15032038
:101B30000A128A15613E840090300318013E831218
:101B40000313FF000A168A1100200A128A15AA0040
:101B50000A168A1100200A128A15AB000A168A1189
:101B600000200A128A15AC000A128A15CC200A122B
:101B70008A15831203132708BC002808BD00290812
:101B8000BE000330BA003A08A4003F08F200F30197
:101B9000F21BF3030A30F0000030F1000A168A113C
:101BA00059250A128A1570080A128A1503200A128A
:101BB0008A15613E840090300318013E831203139E
:101BC000FF000A168A1100200A128A15A7000A16B9
:101BD0008A1100200A128A15A8000A168A1100200C
:101BE0000A128A15A9003C08AA003D08AB003E086D
:101BF000AC000A128A15CC20831203132708B70001
:101C00002808B8002908B90008003F08803A753E46
:101C1000031C7B2E0330BA003A08A4003F08F200F0
:101C2000F301F21BF3030A30F0000030F1000A1652
:101C30008A1159250A128A1570080A128A1503207A
:101C40000A128A15613E840090300318013E831207
:101C50000313FF000A168A1100200A128A15A70032
:101C60000A168A1100200A128A15A8000A168A117B
:101C700000200A128A15A9000330BB003B08A4000B
:101C80000A30F7000030F8003F08F900FA01F91BAC
:101C9000FA030A168A11F0250A128A157708093EF6
:101CA0000A128A1503200A128A15613E84009030B8
:101CB0000318013E83120313FF000A168A11002045
:101CC0000A128A15AA000A168A1100200A128A1519
:101CD000AB000A168A1100200A128A15AC000A12FB
:101CE0008A15CC20831203132708B7002808B800F0
:101CF0002908B90008000330BA003A08A4003F08D8
:101D00000A128A1503200A128A15613E8400903057
:101D10000318013E83120313FF000A168A110020E4
:101D20000A128A15B7000A168A1100200A128A15AB
:101D3000B8000A168A110020B90008003F08803A4E
:101D4000123E031C672F0330BA003A08A4000A3081
:101D5000F7000030F8003F08F200F301F21BF30334
:101D60006430F0000030F1000A168A1159250A1279
:101D70008A157108FA007008F9000A168A11F02510
:101D80000A128A157708093E0A128A1503200A12D8
:101D90008A153A3E840090300318013E83120313E3
:101DA000FF000A168A1100200A128A15A7000A16D7
:101DB0008A1100200A128A15A8000A168A1100202A
:101DC0000A128A15A9000330BB003B08A400643046
:101DD000F7000030F8003F08F900FA01F91BFA0398
:101DE0000A168A11F0250A128A157708123E0A127D
:101DF0008A1503200A128A153A3E8400903003188F
:101E0000013E83120313FF000A168A1100200A12F2
:101E10008A15AA000A168A1100200A128A15AB0038
:101E20000A168A1100200A128A15AC000A128A15B5
:101E3000CC200A128A15831203132708BC00280835
:101E4000BD002908BE000330BA003A08A4003F08CC
:101E5000F200F301F21BF3030A30F0000030F1004E
:101E60000A168A1159250A128A1570080A128A154B
:101E700003200A128A153A3E840090300318013E6E
:101E800083120313FF000A168A1100200A128A1512
:101E9000A7000A168A1100200A128A15A8000A163D
:101EA0008A1100200A128A15A9003C08AA003D08E0
:101EB000AB003E08AC000A128A15CC208312031333
:101EC0002708B7002808B8002908B90008003F080B
:101ED000803A753E031CDD2F0330BA003A08A40097
:101EE0003F08F200F301F21BF3030A30F000003068
:101EF000F1000A168A1159250A128A1570080A1269
:101F00008A1503200A128A153A3E8400903003187D
:101F1000013E83120313FF000A168A1100200A12E1
:101F20008A15A7000A168A1100200A128A15A8002D
:101F30000A168A1100200A128A15A9000330BB0074
:101F40003B08A4000A30F7000030F8003F08F90011
:101F5000FA01F91BFA030A168A11F0250A128A15EA
:101F60007708093E0A128A1503200A128A153A3E9A
:101F7000840090300318013E83120313FF000A16F9
:101F80008A1100200A128A15AA000A168A11002056
:101F90000A128A15AB000A168A1100200A128A1545
:101FA000AC000A128A15CC20831203132708B7004D
:101FB0002808B8002908B90008000330BA003A0818
:101FC000A4003F080A128A1503200A128A153A3E15
:101FD000840090300318013E83120313FF000A1699
:101FE0008A1100200A128A15B7000A168A110020E9
:101FF0000A128A15B8000A168A110020B9000800D2
:10200000FF1B0A2883137F1883170008840A03190B
:10201000FF0A08007F087F398A000408840A031930
:10202000FF0A820001340034003400340A340034E2
:10203000003400346434003400340034E8340334B1
:10204000003400341034273400340034A034863493
:1020500001340034403442340F3400348034963438
:10206000983400340034E134F53405340034CA3493
:102070009A343B34003480343F34003420344134CB
:102080000034C834423400347A34443440341C348C
:1020900046345034C3344734243474344934973488
:1020A00018344B34BC34BE344C346B346E344E3440
:1020B0000334153450347934AD346034F334493456
:1020C0007134003480343F34CD34CC343D34D73493
:1020D00023343C34123483343A34B734D134383472
:1020E000C63427343734383486343534C034D634A3
:1020F0003334CC342B343234703489343034E734D4
:10210000DB342E34E5343C341E344234A2340D34F6
:102110002A342A342A342A342A34203420343334DA
:102120002E34283452344234323429342E3420347C
:102130004D3475346C347434693470346C346934AF
:1021400063346134633469346F346E342034203442
:102150002A342A342A342A342A342A342A342A348F
:102160000A3400342A342A342A342A342A342A34C9
:1021700020342034203420342034203431342E34A0
:10218000283452344234303429342E3420345334F9
:1021900075346D34613420342034203420342034BC
:1021A00020342A342A342A342A342A342A342A3449
:1021B0002A342A340A3400342A342A342A342A3479
:1021C0002A342A342034203420342034203420345B
:1021D00032342E34283452344234313429342E34BB
:1021E00020345234653473347434613420342034F0
:1021F0002034203420342A342A342A342A342A340D
:102200002A342A342A342A340A3400342A342A3428
:102210002A342A342A342A342034203420342034F6
:10222000203434342E342834523442343334293474
:102230002E34203444346934763469347334693448
:102240006F346E342034203420342A342A342A3433
:102250002A342A342A342A342A342A340A340034D8
:102260002A342A342A342A342A342A342A342A347E
:102270002A342A342A342A342A342A342A342A346E
:102280002A342A342A342A342A342A342A342A345E
:102290002A342A342A342A342A342A342A342A344E
:1022A0002A342A342A342A342A342A342A342A343E
:1022B0000A34003445346C34203472346534733459
:1022C00075346C347434613464346F342034643461
:1022D000653420346C34613420344D3475346C34BE
:1022E0007434693470346C34693463346134633405
:1022F00069346F346E342034653473343A342034A6
:10230000253466340A3400344534723472346F3400
:1023100072342C3420346E346F342034653473348A
:10232000203470346F347334693462346C346534FF
:1023300020346434693476346934643469347234F2
:10234000203465346E34743472346534203430345F
:102350002E340A34003445346C34203472346534FD
:10236000733475346C347434613464346F342034B1
:102370006434653420346C3461342034443469343A
:1023800076346934733469346F346E342034653490
:1023900073343A342034253466340A3400344534F6
:1023A0006C34203472346534733475346C34743462
:1023B000613464346F3420346434653420346C34D4
:1023C00061342034523465347334743461342034CD
:1023D000653473343A342034253466340A34003496
:1023E00045346C34203472346534733475346C3451
:1023F0007434613464346F3420346434653420348C
:102400006C3461342034533475346D346134203489
:10241000653473343A342034253466340A34003455
:1029AA0083160313981683120313981708007208E4
:1029BA0071047004031908008030F2060800F00060
:1029CA00831203130C1EE52C700899000800831269
:1029DA0003135608550454040319F52C8030D606FF
:1029EA005708C7005808C8005908C9005408CA003F
:1029FA005508CB005608CC000A128A159F2183126B
:102A0A0003134708D4004808D5004908D60008002F
:102A1A00F401F501701C172D7208F4070318F50A62
:102A2A007308F50701300310F20DF30DFF3E031D85
:102A3A00182D01300310F10CF00CFF3E031D1F2D61
:102A4A0070087104031D0F2D7508F1007408F00059
:102A5A0008008E30FC007C08FD00FF307B0503195E
:102A6A00442D01300310FB0CFA0CF90CF80CFF3E54
:102A7A00031D372D0130FC007C08FD07322D780834
:102A8A00F0007908F1007A08F2007D08FC007C0861
:102A9A00F300F4010A168A1106277008F800710873
:102AAA00F9007208FA000800F601F31F632DF20913
:102ABA00F309F20A0319F30AF601F60AF11F6A2D5D
:102ACA00F009F109F00A0319F10A700871040319EF
:102ADA00972DF501F50AF11B7E2D01300310F00D3B
:102AEA00F10DFF3E031D732D0130F4007408F50744
:102AFA00702D71087302031D842D70087202031C65
:102B0A008C2D7008F2027108031CF303F3020130E2
:102B1A000310F10CF00CFF3E031D8D2D0130F50260
:102B2A00031D7E2D760803199F2DF209F309F20A77
:102B3A000319F30A7308F1007208F0000800730819
:102B4A007204710470040319E72DF901F90AF31BE1
:102B5A00BC2D0130F8000310F00DF10DF20DF30D4C
:102B6A00F80BB02D0130F8007808F907AC2D73087E
:102B7A007702031DCA2D72087602031DCA2D710839
:102B8A007502031DCA2D70087402031CDA2D700821
:102B9A00F4027108031C710FF5027208031C720F0C
:102BAA00F6027308031C730FF70201300310F30CCB
:102BBA00F20CF10CF00CFF3E031DDB2D0130F90283
:102BCA00031DBC2D7708F3007608F2007508F100A2
:102BDA007408F000080083120313A101F81FFC2DEA
:102BEA00F709F809F70A0319F80AA101A10AFA1F55
:102BFA00072EF909FA09F90A0319FA0A0130FB0042
:102C0A007B08A106A201A3017708780403193E2EC6
:102C1A00A001A00AF81B1D2E01300310F70DF80DB4
:102C2A00FF3E031D122E0130FB007B08A0070F2E6A
:102C3A0001300310A20DA30DFF3E031D1E2E7808BE
:102C4A007A02031D2A2E77087902031C332E77088D
:102C5A00F9027808031CFA03FA022214013003105D
:102C6A00F80CF70CFF3E031D342E0130A002031DA1
:102C7A001D2E21080319462EA209A309A20A031927
:102C8A00A30A2308F8002208F7000800F21F722E90
:102C9A000030F6000030F7008030F8007009F900C3
:102CAA007109FA007209FB00F90A0319FA0A0319F1
:102CBA00FB0A7908F6077A0803187A0F652E662E3A
:102CCA00F7077B0803187B0F6B2E6C2EF807760824
:102CDA00F0007708F1007808F200F51F992E00300D
:102CEA00F6000030F7008030F8007309F900740923
:102CFA00FA007509FB00F90A0319FA0A0319FB0A13
:102D0A007908F6077A0803187A0F8C2E8D2EF707A2
:102D1A007B0803187B0F922E932EF8077608F30090
:102D2A007708F4007808F5008030F2068030F5065E
:102D3A0075087202031D080074087102031D080059
:102D4A007308700208000030FC000030FB000030FD
:102D5A00FA000030F9007308720471047004031950
:102D6A00FD2EFD01FD0AF31BC82E0130F8000310E9
:102D7A00F00DF10DF20DF30DF80BBC2E0130F80039
:102D8A007808FD07B82E0130F8000310F90DFA0D86
:102D9A00FB0DFC0DF80BCA2E73087702031DDF2EFC
:102DAA0072087602031DDF2E71087502031DDF2EDD
:102DBA0070087402031CF02E7008F4027108031CD8
:102DCA00710FF5027208031C720FF6027308031CD6
:102DDA00730FF702791401300310F30CF20CF10CA3
:102DEA00F00CFF3E031DF12E0130FD02031DC82E1B
:102DFA007C08F3007B08F2007A08F1007908F000F9
:102E0A000800730803190E2F720871047004031D59
:102E1A00212F0030F0000030F1000030F2000800ED
:102E2A000130F5007508F30701300310F20CF10CBC
:102E3A00F00CFF3E031D1A2FFE30720503193C2FBA
:102E4A00152F0130F5007508F3070130F00700303F
:102E5A0003180130F107003003180130F20701307E
:102E6A000310F20CF10CF00CFF3E031D352FFF305E
:102E7A00720503194B2F262F0130F302013003107C
:102E8A00F00DF10DF20DFF3E031D442FF11B512FE2
:102E9A00023073020318412F7318592FFF30F005BF
:102EAA007F30F105FF30F2050310F30C7308F500CB
:102EBA00F601F70110300310F50DF60DF70DFF3E80
:102ECA00031D602F7508F0047608F1047708F204F0
:102EDA00740803190800F217080083120313400844
:102EEA00C4004108C5004208C6000310450D460D3E
:102EFA00C7004708CD004D08031D8C2F0030C300C2
:102F0A000030C2000030C1000030C0000800400894
:102F1A00C4004108C5004208C60017300310C60C99
:102F2A00C50CC40CFF3E031D932F4408C700470875
:102F3A00C800C117FF30C005FF30C1050030C20507
:102F4A004008C9004108CA004208CB00CC018E30B3
:102F5A00CD02CD1FCE2F4D08803A8F3E0318BE2FCB
:102F6A000030C3000030C2000030C1000030C00091
:102F7A00080001300310CC0CCB0CCA0CC90CFF3E64
:102F8A00031DBF2F0130C4004408CD070319E92FE0
:102F9A00BE2F18304D02031CE62F0030C30000304C
:102FAA00C2000030C1000030C00008000130C40077
:102FBA000310C90DCA0DCB0DCC0DC40BDD2F01308A
:102FCA00CD024D08031DDB2F48080319F72FC90945
:102FDA00CA09CB09CC09C90A0319CA0A0319CB0AB7
:102FEA000319CC0A4C08C3004B08C2004A08C100A6
:062FFA004908C0000800B8
:00000001FF
