:060000000A128A11C72F4D
:10000A00F401F501701C0F287208F4070318F50AA9
:10001A007308F50701300310F20DF30DFF3E031DBF
:10002A00102801300310F10CF00CFF3E031D1728B5
:10003A0070087104031D07287508F1007408F000A0
:10004A000800831203134008C4004108C50042088F
:10005A00C6000310450D460DC7004708CD004D08E0
:10006A00031D40280030C3000030C2000030C10028
:10007A000030C00008004008C4004108C50042081A
:10008A00C60017300310C60CC50CC40CFF3E031D76
:10009A0047284408C7004708C800C117FF30C005F1
:1000AA00FF30C1050030C2054008C9004108CA0036
:1000BA004208CB00CC018E30CD02CD1F82284D08DC
:1000CA00803A8F3E031872280030C3000030C20005
:1000DA000030C1000030C000080001300310CC0C11
:1000EA00CB0CCA0CC90CFF3E031D73280130C40097
:1000FA004408CD0703199D28722818304D02031CA5
:10010A009A280030C3000030C2000030C10000301D
:10011A00C00008000130C4000310C90DCA0DCB0D80
:10012A00CC0DC40B91280130CD024D08031D8F2838
:10013A0048080319AB28C909CA09CB09CC09C90A55
:10014A000319CA0A0319CB0A0319CC0A4C08C300BB
:10015A004B08C2004A08C1004908C00008008312BF
:10016A000313C6006E304602031C9E290330BA00F0
:10017A003A08A4000A30F7000030F8004608BB002D
:10018A00BC013B08F2003C08F3006430F000003088
:10019A00F1000A168A11DA240A128A117108FA0081
:1001AA007008F9000A168A1171250A128A1177084D
:1001BA00093E0A168A11A6240A128A11613E84008F
:1001CA0090300318013E83120313FF000A168A11A6
:1001DA0000200A128A11A7000A168A1100200A12A0
:1001EA008A11A8000A168A1100200A128A11A90087
:1001FA000330BD003D08A4006430F7000030F80069
:10020A004608BE00BF013E08F9003F08FA000A1678
:10021A008A1171250A128A117708123E0A168A1162
:10022A00A6240A128A11613E840090300318013E06
:10023A0083120313FF000A168A1100200A128A1178
:10024A00AA000A168A1100200A128A11AB000A169D
:10025A008A1100200A128A11AC000A128A15A520F6
:10026A000A128A11831203132708C3002808C4003C
:10027A002908C5000330BA003A08A4004608BB00A2
:10028A00BC013B08F2003C08F3000A30F0000030E1
:10029A00F1000A168A11DA240A128A1170080A165B
:1002AA008A11A6240A128A11613E8400903003182A
:1002BA00013E83120313FF000A168A1100200A1254
:1002CA008A11A7000A168A1100200A128A11A800A8
:1002DA000A168A1100200A128A11A9004308AA00E4
:1002EA004408AB004508AC000A128A15A5200A1278
:1002FA008A11831203132708C0002808C10029089D
:10030A00C2000030A7000030A8003F30A900400812
:10031A00AA004108AB004208AC000A128A15A520BF
:10032A00831203132708B7002808B8002908B90060
:10033A0008000B304602031C302A0330BA003A0880
:10034A00A4004608BB00BC013B08F2003C08F300CD
:10035A000A30F0000030F1000A168A11DA240A1273
:10036A008A1170080A168A11A6240A128A11613E95
:10037A00840090300318013E83120313FF000A160B
:10038A008A1100200A128A11A7000A168A1100206F
:10039A000A128A11A8000A168A1100200A128A1162
:1003AA00A9000330BD003D08A4000A30F700003060
:1003BA00F8004608BE00BF013E08F9003F08FA00EF
:1003CA000A168A1171250A128A117708093E0A1635
:1003DA008A11A6240A128A11613E840090300318F9
:1003EA00013E83120313FF000A168A1100200A1223
:1003FA008A11AA000A168A1100200A128A11AB0071
:10040A000A168A1100200A128A11AC000A128A15E9
:10041A00A5200A128A11831203132708C300280889
:10042A00C4002908C5000030A7000030A8003F30EA
:10043A00A9004308AA004408AB004508AC000A1208
:10044A008A15A520831203132708B7002808B800C5
:10045A002908B90008000030A7000030A8003F3082
:10046A00A9000330BA003A08A40046080A168A11FD
:10047A00A6240A128A11613E840090300318013EB4
:10048A0083120313FF000A168A1100200A128A1126
:10049A00AA000A168A1100200A128A11AB000A164B
:1004AA008A1100200A128A11AC000A128A15A520A4
:1004BA00831203132708B7002808B8002908B900CF
:1004CA0008005C3083120313DF005F0883160313EE
:1004DA00A300831203135B08E0005A08DF00DA0A5C
:1004EA000319DB0A6008FF005F0884000A168A11F4
:1004FA0000200A128A11E100610883160313B5006D
:10050A00350803190800253035060319932A3508DA
:10051A000A128A1506200A128A116E2A83160313F2
:10052A00A401A5019A2A2515B62A831203135B088A
:10053A00E0005A08DF00DA0A0319DB0A6008FF0044
:10054A005F0884000A168A1100200A128A1183168B
:10055A000313B500003A0319C62F663A0319982AFD
:10056A006E2A0030240583120313DF000730831636
:10057A000313250583120313E0005F0860040319BF
:10058A00AD2F063083160313A6000030A7002308F8
:10059A00840083130008B200840A0008B300840AA6
:1005AA000008B400033083120313DF005F088316C8
:1005BA000313A3073208F0003308F1003408F200ED
:1005CA000030F3000030F4000030F5000A168A11FA
:1005DA00CC250A128A1103180B2B8316031332082F
:1005EA00F0003308F1003408F2000A168A119E243A
:1005FA000A128A11700883160313B2007108B30035
:10060A007208B4000330A4040030A504831603134F
:10061A00AC01AD013408330432040319FF2BB230A4
:10062A0084008313000883120313DF00840A00087E
:10063A00E000840A0008E100840A0008E2000F30A2
:10064A000310E20CE10CE00CDF0CFF3E031D252B2E
:10065A00FF305F05E30000306005E4006308823E76
:10066A0083160313AC008312031364080318013EB4
:10067A00FF3E83160313AD00FF30AC070318AD0A23
:10068A00FF30AD070330F0000030F1002D08F30011
:10069A002C08F2000A128A1105200A128A1171081E
:1006AA0083160313AD007008AC000A30F70000305F
:1006BA00F8002D08FA002C08F9000A168A1171258B
:1006CA000A128A11780883160313AD007708AC0062
:1006DA00AD1F752BFF30AC070318AD0AFF30AD070D
:1006EA002C03FF3A0A128A1535250A128A11831237
:1006FA000313370883160313AE0083120313380853
:10070A0083160313AF0083120313390883160313E6
:10071A00B000320883120313A700831603133308A9
:10072A0083120313A80083160313340883120313D6
:10073A00A900831603132E0883120313AA00831633
:10074A0003132F0883120313AB0083160313300815
:10075A0083120313AC000A128A15A5200A128A1101
:10076A0083120313270883160313AE00831203139D
:10077A00280883160313AF0083120313290883166C
:10078A000313B0002E08F0002F08F1003008F20021
:10079A000030F3008030F4003F30F5000A168A1169
:1007AA00CC250A128A110318E22BFF308316031391
:1007BA00AC070318AD0AFF30FE2B831603132E086D
:1007CA00F0002F08F1003008F2000030F30020306A
:1007DA00F4004130F5000A168A11CC250A128A1152
:1007EA00031CFF2B013083160313AC070318AD0A51
:1007FA000030AD07831603132708803AFF008030C4
:10080A007F02031D0A2C0D3026020318452C83167D
:10081A00031326080A128A11B4200A128A118312B3
:10082A0003133708C7003808C8003908C9008316F7
:10083A000313320883120313CA00831603133308FF
:10084A0083120313CB008316031334088312031392
:10085A00CC000A128A1578210A128A11831203130C
:10086A00470883160313B20083120313480883163A
:10087A000313B30083120313490883160313B40046
:10088A00831603132D08803AFF0080307F02031D70
:10089A00502C0A302C020318832C831603133408B5
:1008AA00330432040319DC2C320883120313C00008
:1008BA0083160313330883120313C1008316031329
:1008CA00340883120313C2000A128A1126200A125C
:1008DA008A11831203134308420441044004031D8E
:1008EA00DC2C831603132D08803AFF0080307F0228
:1008FA00031D812C02302C02031CDC2C83160313EB
:10090A002E08F0002F08F1003008F2007030F300D2
:10091A008930F4004030F5000A168A11CC250A12F3
:10092A008A1103189A2CF7309B2CF830831603137C
:10093A00AC070318AD0AFF30AD072C080A128A1556
:10094A0035250A128A1183120313370883160313F3
:10095A00AE0083120313380883160313AF00831201
:10096A000313390883160313B0003208F000330862
:10097A00F1003408F2002E08F3002F08F4003008C2
:10098A00F5000A168A113D270A128A11730883167E
:10099A000313AB007208AA007108A9007008A80026
:1009AA000030B2000030B3000030B4004B2D831683
:1009BA000313320883120313C00083160313330888
:1009CA0083120313C100831603133408831203131B
:1009DA00C2000A128A1126200A128A1183120313EC
:1009EA00430883160313AB008312031342088316CA
:1009FA000313AA0083120313410883160313A900E1
:100A0A0083120313400883160313A8002B08FB0064
:100A1A002A08FA002908F9002808F8000A128A1593
:100A2A000E200A128A11780883120313D400790857
:100A3A00D5007A08D60083160313320883120313EB
:100A4A00D70083160313330883120313D8008316BF
:100A5A000313340883120313D9000A168A11B9241E
:100A6A000A128A1183120313540883160313B2005D
:100A7A0083120313550883160313B3008312031357
:100A8A00560883160313B400AC01AD01B501B50ACB
:100A9A000A3035060319A52D350883120313DF0022
:100AAA0001300310DF0DFF3E031D562D03105F0DAD
:100ABA00123E840090300318013EFF000A168A1184
:100ACA0000200A128A11E0000A168A1100200A126E
:100ADA008A11E1000A168A1100200A128A11E2001C
:100AEA000A168A1100200A128A11E3006308831683
:100AFA0003132B02031D972D831203136208831617
:100B0A0003132A02031D972D831203136108831608
:100B1A0003132902031D972D8312031360088316FA
:100B2A0003132802031CA52D013083120313DF00CF
:100B3A005F0883160313B5070A303506031D512DC6
:100B4A000330240583120313DF00003083160313D6
:100B5A00250583120313E0005F0860040319BB2D07
:100B6A002D300A128A1506200A128A11FF308312C2
:100B7A000313DF005F0883160313B507350A031949
:100B8A003B2E83160313350883120313DF0001304B
:100B9A000310DF0DFF3E031DCD2D03105F0D123E26
:100BAA00840090300318013EFF000A168A110020C3
:100BBA000A128A11F0000A168A1100200A128A11F2
:100BCA00F1000A168A1100200A128A11F2000A1686
:100BDA008A1100200A128A11F300831603132B08C4
:100BEA00F7002A08F6002908F5002808F4000A1672
:100BFA008A1129260A128A11730883160313B1006F
:100C0A007208B0007108AF007008AE000030F3003F
:100C1A000030F2000030F1000A30F0003108F7002D
:100C2A003008F6002F08F5002E08F4000A168A117B
:100C3A0025250A128A11730883160313B100720854
:100C4A00B0007108AF007008AE002E08303EB62D15
:100C5A0030300A128A1506200A128A11FF308316CA
:100C6A000313AC070318AD0AFF30AD072D08803A0D
:100C7A00FF0080307F02031D442E01302C0203182E
:100C8A002D2E831603132708803AFF0080307F0237
:100C9A00031D512E09302602031C552E0830582EEA
:100CAA0083160313260883120313DF005F088316D3
:100CBA000313B500350883120313DF00E001DF1BBD
:100CCA00E0035F0883160313A60283120313600866
:100CDA0083160313031CA703A702350803197B2EE7
:100CEA002E300A128A1506200A128A118316031355
:100CFA0035080A128A1535250A128A118312031336
:100D0A00370883160313A0008312031338088316C7
:100D1A000313A10083120313390883160313A200D5
:100D2A00200883120313AA008316031321088312CF
:100D3A000313AB0083160313220883120313AC00B8
:100D4A0083160313320883120313A70083160313AF
:100D5A00330883120313A80083160313340883127B
:100D6A000313A9000A128A15A5200A128A118312EE
:100D7A0003132708C0002808C1002908C2000A1264
:100D8A008A1126200A128A11831203134308831632
:100D9A000313AB0083120313420883160313AA003A
:100DAA0083120313410883160313A9008312031342
:100DBA00400883160313A800FF3083120313DF00D1
:100DCA005F0883160313B507350A0319A82F3508D8
:100DDA0083120313DF0001300310DF0DFF3E031DF2
:100DEA00F12E03105F0D123E840090300318013E6D
:100DFA00FF000A168A1100200A128A11F0000A1648
:100E0A008A1100200A128A11F1000A168A1100209A
:100E1A000A128A11F2000A168A1100200A128A118D
:100E2A00F300831603132B08F7002A08F600290893
:100E3A00F5002808F4000A168A1129260A128A11CE
:100E4A00730883160313B1007208B0007108AF006B
:100E5A007008AE000030F3000030F2000030F100FC
:100E6A000A30F0003108F7003008F6002F08F500C4
:100E7A002E08F4000A168A1125250A128A11730807
:100E8A0083160313B1007208B0007108AF0070082E
:100E9A00AE002E08303E0A128A1506200A128A115E
:100EAA0083160313350883120313DF00013003107E
:100EBA00DF0DFF3E031D5C2F03105F0D123E840001
:100ECA0090300318013EFF000A168A1100200A1208
:100EDA008A11F0000A168A1100200A128A11F100FA
:100EEA000A168A1100200A128A11F2000A168A11B9
:100EFA0000200A128A11F300831603132B08F70045
:100F0A002A08F6002908F5002808F4000A168A11AA
:100F1A0025250A128A11730883160313AB00720877
:100F2A00AA007108A9007008E02E30300A128A154A
:100F3A0006200A128A11FF3083160313A607031824
:100F4A00A70AFF30A7072608270403196E2A9A2F33
:100F5A00033083160313240583120313DF000030C2
:100F6A0083160313250583120313E0005F08600448
:100F7A0003196E2A2D300A128A1506200A128A11BE
:100F8A006E2A08000A128A1500200A128A11E50040
:100F9A000A128A1501200A128A11E6000A128A1513
:100FAA0002200A128A11E7000A128A1503200A127D
:100FBA008A11E8000A128A1504200A128A11E90025
:100FCA000A128A150520EA0083160313B601B7012F
:100FDA00B801B901BA01BB01BC01BD01BE01BF0123
:100FEA00C001C10183120313EB01EC01ED0183017E
:100FFA000A128A15B32B0034A0344034003420344A
:10100A004134F000831203130C1E0728700899005C
:10101A0008008E30FC007C08FD00FF307B050319B8
:10102A00242801300310FB0CFA0CF90CF80CFF3ED3
:10103A00031D17280130FC007C08FD0712287808D8
:10104A00F0007908F1007A08F2007D08FC007C08BB
:10105A00F300F4010A128A1539207008F8007108A1
:10106A00F9007208FA000800730803194128720887
:10107A0071047004031D54280030F0000030F100A0
:10108A000030F20008000130F5007508F30701305E
:10109A000310F20CF10CF00CFF3E031D4D28FE303C
:1010AA00720503196F2848280130F5007508F307FF
:1010BA000130F007003003180130F107003003183F
:1010CA000130F20701300310F20CF10CF00CFF3E74
:1010DA00031D6828FF30720503197E28592801303C
:1010EA00F30201300310F00DF10DF20DFF3E031D66
:1010FA007728F11B842802307302031874287318A6
:10110A008C28FF30F0057F30F105FF30F20503101F
:10111A00F30C7308F500F601F70110300310F50D12
:10112A00F60DF70DFF3E031D93287508F0047608A7
:10113A00F1047708F204740803190800F21708008A
:10114A00831203132708AD002808AE002908AF0050
:10115A0003102E0D2F0DB0003008B1003108031D09
:10116A00BD280030A7000030A8000030A900080000
:10117A002A08AD002B08AE002C08AF0003102E0D74
:10118A002F0DB0003008B6003608031DD3280030F2
:10119A00A7000030A8000030A900080036087B3EEE
:1011AA00AD002D08B1072708AD002808AE002908B0
:1011BA00AF0010300310AF0CAE0CAD0CFF3E031D98
:1011CA00DF282D08B0003008B6002A08AD002B0829
:1011DA00AE002C08AF0010300310AF0CAE0CAD0CF3
:1011EA00FF3E031DF1282D08B0003008B6068030F6
:1011FA00AD002D08B605A817AB17FF30AA05FF30BA
:10120A00AB050030AC050030B2000030B30000304E
:10121A00B4000730AD002D08B500271C22292A0882
:10122A00B2072B08031103182B0A031DB3072C0856
:10123A00031103182C0A031DB40701300310A90C6B
:10124A00A80CA70CFF3E031D232901300310AA0D89
:10125A00AB0DAC0DFF3E031D2B290130B502031D5A
:10126A0012290930AD002D08B500271C4A292A0881
:10127A00B2072B08031103182B0A031DB3072C0806
:10128A00031103182C0A031DB40701300310A90C1B
:10129A00A80CA70CFF3E031D4B2901300310B40C08
:1012AA00B30CB20CFF3E031D53290130B502031DD6
:1012BA003A293208F0003308F1003408F200310804
:1012CA00AD002D08F3003608AE002E08F4000A120D
:1012DA008A153920700883120313A7007108A80021
:1012EA007208A9000800831203134708CD004808B2
:1012FA00CE004908CF0003104E0D4F0DD000500804
:10130A00D3004A08CD004B08CE004C08CF0003108A
:10131A004E0D4F0DD0005008D20053080319A129D1
:10132A00520853020318A8295303FF3A5207CD0063
:10133A0019304D02031CA8294A08C7004B08C800E7
:10134A004C08C90008005208031908005308520241
:10135A000318B7295203FF3A5307CD0019304D023B
:10136A00031808000630CD004D08D100C91BD1175B
:10137A00CC1B5117C817FF30C705FF30C80500300E
:10138A00C905CB17FF30CA05FF30CB050030CC05A5
:10139A00520853020318F72901300310CA0DCB0D66
:1013AA00CC0DFF3E031DD2290130D202520853064A
:1013BA000319F2290130D102510807390319F22918
:1013CA00D12901300310C90CC80CC70CFF3E031DFC
:1013DA00E7290130CD004D08D307530852060319F7
:1013EA00202AE629530852020318202A0130031042
:1013FA00C70DC80DC90DFF3E031DFC290130D302DC
:10140A005208530603191C2A0130D1025108073920
:10141A0003191C2AFB2901300310CC0CCB0CCA0C73
:10142A00FF3E031D112A0130CD004D08D207530893
:10143A005206031D102AD11F322AFF30C706FF3079
:10144A00C806FF30C9060130C7070030031801304B
:10145A00C807003003180130C907511F442AFF305A
:10146A00CA06FF30CB06FF30CC060130CA0700306F
:10147A0003180130CB07003003180130CC07D10123
:10148A004708CA07480803110318480A031DCB076F
:10149A00490803110318490A031DCC07CC1F672A00
:1014AA00FF30CA06FF30CB06FF30CC060130CA0730
:1014BA00003003180130CB07003003180130CC0785
:1014CA00D101D10A4A08F0004B08F1004C08F20099
:1014DA005308CD004D08F3005108CE004E08F40021
:1014EA000A128A153920700883120313C70071087B
:1014FA00C8007208C9000800703084000008F600AD
:10150A00840A0008F700840A0008F800840A000820
:10151A00F9000310780D790DFA007A088312031383
:10152A00A5002508031DA22A0030F3000030F200AE
:10153A000030F1000030F000080073308400000829
:10154A00F600840A0008F700840A0008F800840AF2
:10155A000008F9000310780D790DFA007A08A40042
:10156A002408031DC12A0030F3000030F2000030C5
:10157A00F1000030F0000800703084000030800470
:10158A00840A00308004840A80308004840A00308F
:10159A00800470308400FF308005840AFF308005A3
:1015AA00840AFF308005840A003080057330840085
:1015BA0000308004840A00308004840A8030800469
:1015CA00840A0030800473308400FF308005840A66
:1015DA00FF308005840AFF308005840A00308005C8
:1015EA000030A3000030A2000030A1000030A000AB
:1015FA007F30A502A0302407F6007608A502203025
:10160A00F6007608A4000130F6000310A00DA10D23
:10161A00A20DA30DF60B0A2B733084000008F60006
:10162A00840A0008F700840A0008F800840A0008FF
:10163A00F900703084000008FA00840A0008FB00F0
:10164A00840A0008FC00840A0008FD0079087D026B
:10165A00031D392B78087C02031D392B77087B027E
:10166A00031D392B76087A02031C5E2B7330840023
:10167A000008F600840A0008F700840A0008F80047
:10168A00840A0008F9007030840076088002840A0F
:10169A007708031C770F8002840A7808031C780FE6
:1016AA008002840A7908031C790A800203308402C2
:1016BA002014703084000310800D840A800D840A7F
:1016CA00800D840A800D8403840384030130A402FC
:1016DA00031D082BA51F8F2B2508803A9F3E031850
:1016EA007F2B0030F3000030F2000030F1000030B0
:1016FA00F000080001300310A30CA20CA10CA00CEE
:10170A00FF3E031D802B0130F6007608A50703195A
:10171A00AA2B7F2B20302502031CA72B0030F300B5
:10172A000030F2000030F1000030F0000800013013
:10173A00F6000310A00DA10DA20DA30DF60B9E2B12
:10174A000130A5022508031D9C2B2308F30022085B
:10175A00F2002108F1002008F0000800FF3083168B
:10176A00031386008312031386010A168A1197242B
:10177A000A128A15D93083120313DA009030DB007B
:10178A000A128A1166220A128A1523308312031357
:10179A00DA009130DB000A128A1166220A128A15CF
:1017AA00473083120313DA009130DB000A128A11E0
:1017BA0066220A128A15FF3083120313DA00903068
:1017CA00DB000A128A1166220A128A156B3083120A
:1017DA000313DA009130DB000A128A1166220A1218
:1017EA008A15D93083120313DA009030DB000A120B
:1017FA008A1166220A128A15831203136508C70022
:10180A006608C8006708C9006808CA006908CB00EA
:10181A006A08CC000A128A1578210A128A158312DC
:10182A0003134708EB004808EC004908ED00680874
:10183A00C7006908C8006A08C9006508F000660898
:10184A00F1006708F2000A168A119E240A128A1504
:10185A00700883120313CA007108CB007208CC0007
:10186A000A128A1578210A128A1583120313470865
:10187A0083160313BC008312031348088316031349
:10188A00BD0083120313490883160313BE00831293
:10189A0003136508A7006608A8006708A900680876
:1018AA00AA006908AB006A08AC000A128A15A520CA
:1018BA000A128A1583120313270883160313B90021
:1018CA0083120313280883160313BA00831203131F
:1018DA00290883160313BB00831203136508F80053
:1018EA006608F9006708FA006808FB006908FC0046
:1018FA006A08FD000A168A1187260A128A157808CC
:10190A0083160313B6007908B7007A08B800831261
:10191A000313061C9F2CD430DA009130DB006B08CD
:10192A00DC006C08DD006D08DE000A128A116622EE
:10193A000A128A1583120313861CBE2CB330DA00EE
:10194A009130DB00831603133C0883120313DC0077
:10195A00831603133D0883120313DD008316031352
:10196A003E0883120313DE000A128A1166220A1243
:10197A008A1583120313061DDD2C8830DA00903095
:10198A00DB0083160313390883120313DC00831662
:10199A0003133A0883120313DD00831603133B086B
:1019AA0083120313DE000A128A1166220A128A15AA
:1019BA0083120313861D292D670866046504031D17
:1019CA00F02CB230DA009030DB000A128A1166225B
:1019DA000A128A15BA2B831203136508F8006608DF
:1019EA00F9006708FA006808FB006908FC006A0841
:1019FA00FD000A168A1187260A128A1578088316A4
:101A0A000313BF007908C0007A08C1008F3083121F
:101A1A000313DA009130DB008316031336088312AE
:101A2A000313DC0083160313370883120313DD0044
:101A3A0083160313380883120313DE000A128A116D
:101A4A0066220A128A15BA2BF43083120313DA00BB
:101A5A009130DB000A128A1166220A128A15BA2B01
:101A6A0083120313BF00BF1F9E2EBF09BF0A3F0880
:101A7A00803A123E031C052E0330BA003A08A4002D
:101A8A000A30F7000030F8003F08F200F301F21BB9
:101A9A00F3036430F0000030F1000A168A11DA24E8
:101AAA000A128A157108FA007008F9000A168A11D2
:101ABA0071250A128A157708093E0A168A11A62480
:101ACA000A128A15613E840090300318013E83127F
:101ADA000313FF000A168A1100200A128A15A700AA
:101AEA000A168A1100200A128A15A8000A168A11F3
:101AFA0000200A128A15A9000330BB003B08A40083
:101B0A006430F7000030F8003F08F900FA01F91BC9
:101B1A00FA030A168A1171250A128A157708123EE3
:101B2A000A168A11A6240A128A15613E8400903088
:101B3A000318013E83120313FF000A168A110020BC
:101B4A000A128A15AA000A168A1100200A128A1590
:101B5A00AB000A168A1100200A128A15AC000A1272
:101B6A008A15A5200A128A15831203132708BC00B6
:101B7A002808BD002908BE000330BA003A08A400AC
:101B8A003F08F200F301F21BF3030A30F0000030C1
:101B9A00F1000A168A11DA240A128A1570080A163E
:101BAA008A11A6240A128A15613E8400903003180D
:101BBA00013E83120313FF000A168A1100200A123B
:101BCA008A15A7000A168A1100200A128A15A80087
:101BDA000A168A1100200A128A15A9003C08AA00CE
:101BEA003D08AB003E08AC000A128A15A5208312F4
:101BFA0003132708B7002808B8002908B900080005
:101C0A003F08803A753E031C7B2E0330BA003A081F
:101C1A00A4003F08F200F301F21BF3030A30F000BC
:101C2A000030F1000A168A11DA240A128A1570089D
:101C3A000A168A11A6240A128A15613E8400903077
:101C4A000318013E83120313FF000A168A110020AB
:101C5A000A128A15A7000A168A1100200A128A1582
:101C6A00A8000A168A1100200A128A15A900033050
:101C7A00BB003B08A4000A30F7000030F8003F0818
:101C8A00F900FA01F91BFA030A168A1171250A12D8
:101C9A008A157708093E0A168A11A6240A128A1595
:101CAA00613E840090300318013E83120313FF0043
:101CBA000A168A1100200A128A15AA000A168A111F
:101CCA0000200A128A15AB000A168A1100200A128D
:101CDA008A15AC000A128A15A52083120313270855
:101CEA00B7002808B8002908B90008000330BA006C
:101CFA003A08A4003F080A168A11A6240A128A156D
:101D0A00613E840090300318013E83120313FF00E2
:101D1A000A168A1100200A128A15B7000A168A11B1
:101D2A0000200A128A15B8000A168A110020B90082
:101D3A0008003F08803A123E031C672F0330BA009E
:101D4A003A08A4000A30F7000030F8003F08F20011
:101D5A00F301F21BF3036430F0000030F1000A16BD
:101D6A008A11DA240A128A157108FA007008F90031
:101D7A000A168A1171250A128A157708093E0A1667
:101D8A008A11A6240A128A153A3E84009030031852
:101D9A00013E83120313FF000A168A1100200A1259
:101DAA008A15A7000A168A1100200A128A15A800A5
:101DBA000A168A1100200A128A15A9000330BB00EC
:101DCA003B08A4006430F7000030F8003F08F9002F
:101DDA00FA01F91BFA030A168A1171250A128A15E1
:101DEA007708123E0A168A11A6240A128A153A3E62
:101DFA00840090300318013E83120313FF000A1671
:101E0A008A1100200A128A15AA000A168A110020CD
:101E1A000A128A15AB000A168A1100200A128A15BC
:101E2A00AC000A128A15A5200A128A158312031316
:101E3A002708BC002808BD002908BE000330BA00E4
:101E4A003A08A4003F08F200F301F21BF3030A3038
:101E5A00F0000030F1000A168A11DA240A128A15F3
:101E6A0070080A168A11A6240A128A153A3E8400B4
:101E7A0090300318013E83120313FF000A168A11D9
:101E8A0000200A128A15A7000A168A1100200A12CF
:101E9A008A15A8000A168A1100200A128A15A900B2
:101EAA003C08AA003D08AB003E08AC000A128A159D
:101EBA00A520831203132708B7002808B8002908A9
:101ECA00B90008003F08803A753E031CDD2F033035
:101EDA00BA003A08A4003F08F200F301F21BF30328
:101EEA000A30F0000030F1000A168A11DA240A12C8
:101EFA008A1570080A168A11A6240A128A153A3E09
:101F0A00840090300318013E83120313FF000A165F
:101F1A008A1100200A128A15A7000A168A110020BF
:101F2A000A128A15A8000A168A1100200A128A15AE
:101F3A00A9000330BB003B08A4000A30F7000030B8
:101F4A00F8003F08F900FA01F91BFA030A168A1188
:101F5A0071250A128A157708093E0A168A11A624DB
:101F6A000A128A153A3E840090300318013E831201
:101F7A000313FF000A168A1100200A128A15AA0002
:101F8A000A168A1100200A128A15AB000A168A114B
:101F9A0000200A128A15AC000A128A15A52083129B
:101FAA0003132708B7002808B8002908B900080051
:101FBA000330BA003A08A4003F080A168A11A62478
:101FCA000A128A153A3E840090300318013E8312A1
:101FDA000313FF000A168A1100200A128A15B70095
:101FEA000A168A1100200A128A15B8000A168A11DE
:101FFA000020B9000800FF1B0A2883137F188317E3
:10200A000008840A0319FF0A08007F087F398A003A
:10201A000408840A0319FF0A8200013400340034D8
:10202A0000340A3400340034003464340034003498
:10203A000034E834033400340034103427340034D4
:10204A000034A034863401340034403442340F342E
:10205A00003480349634983400340034E134F53452
:10206A0005340034CA349A343B34003480343F3463
:10207A000034203441340034C834423400347A34D1
:10208A00443440341C3446345034C3344734243442
:10209A0074344934973418344B34BC34BE344C3419
:1020AA006B346E344E340334153450347934AD34D1
:1020BA006034F33449347134003480343F34CD34DD
:1020CA00CC343D34D73423343C34123483343A3458
:1020DA00B734D1343834C6342734373438348634B4
:1020EA003534C034D6343334CC342B3432347034AF
:1020FA0089343034E734DB342E34E5343C341E344E
:10210A004234A2340D3445346C342034723465348C
:10211A00733475346C347434613464346F342034F9
:10212A006434653420346C34613420344D3475346D
:10213A006C347434693470346C34693463346134A3
:10214A00633469346F346E342034653473343A340A
:10215A002034253466340A340034453472347234F7
:10216A006F3472342C3420346E346F342034653436
:10217A007334203470346F347334693462346C3499
:10218A0065342034643469347634693464346934A7
:10219A007234203465346E347434723465342034C5
:1021AA0030342E340A3400342A342A342A342A3475
:1021BA002A342A342A342A342A342A342A342A3425
:1021CA002A342A342A342A342A342A342A342A3415
:1021DA002A342A342A342A342A342A342A342A3405
:1021EA002A342A342A342A342A342A342A342A34F5
:1021FA000A3400342A342A342A342A342A34203439
:10220A00203433342E3420344D3475346C347434E1
:10221A00693470346C3469346334613463346934D6
:10222A006F346E34203420342A342A342A342A343F
:10223A002A342A342A342A340A3400342A342A34EE
:10224A002A342A342A342A342034203420342034BC
:10225A002034203431342E342034533475346D34E0
:10226A0061342034203420342034203420342A3479
:10227A002A342A342A342A342A342A342A342A3464
:10228A000A3400342A342A342A342A342A342A349E
:10229A0020342034203420342034203432342E3474
:1022AA002034523465347334743461342034203425
:1022BA002034203420342A342A342A342A342A3442
:1022CA002A342A342A342A340A3400342A342A345E
:1022DA002A342A342A342A3420342034203420342C
:1022EA00203434342E342034443469347634693416
:1022FA00733469346F346E342034203420342A34F1
:10230A002A342A342A342A342A342A342A342A34D3
:10231A000A34003445346C342034723465347334EE
:10232A0075346C347434613464346F3420346434F6
:10233A00653420346C34613420344434693476345E
:10234A006934733469346F346E34203465347334C9
:10235A003A342034253466340A34003445346C3433
:10236A00203472346534733475346C3474346134A3
:10237A0064346F3420346434653420346C3461340A
:10238A0020345234653473347434613420346534FF
:10239A0073343A342034253466340A3400344534EC
:1023AA006C34203472346534733475346C34743458
:1023BA00613464346F3420346434653420346C34CA
:1023CA0061342034533475346D34613420346534C7
:1023DA0073343A342034253466340A3400344F34A2
:1023EA007034633469346F346E34203449346E3453
:1023FA0063346F34723472346534633474346134E0
:06240A000A342034003406
:10292E008316031398168312031398170800720860
:10293E0071047004031908008030F2060800831237
:10294E000313A600A501261CB02C2408FC007C084D
:10295E00A5070310A40D0310A60C2608031DAA2C10
:10296E00250808008312031356085504540403194E
:10297E00C22C8030D6065708C7005808C800590820
:10298E00C9005408CA005508CB005608CC000A12DC
:10299E008A157821831203134708D4004808D500FE
:1029AE004908D6000800F601F31FE42CF209F309DA
:1029BE00F20A0319F30AF601F60AF11FEB2CF009DD
:1029CE00F109F00A0319F10A700871040319182DA0
:1029DE00F501F50AF11BFF2C01300310F00DF10D7E
:1029EE00FF3E031DF42C0130F4007408F507F12CA2
:1029FE0071087302031D052D70087202031C0D2D44
:102A0E007008F2027108031CF303F3020130031085
:102A1E00F10CF00CFF3E031D0E2D0130F502031DCF
:102A2E00FF2C76080319202DF209F309F20A031977
:102A3E00F30A7308F1007208F000080073087204BC
:102A4E00710470040319682DF901F90AF31B3D2D69
:102A5E000130F8000310F00DF10DF20DF30DF80B2F
:102A6E00312D0130F8007808F9072D2D7308770203
:102A7E00031D4B2D72087602031D4B2D7108750236
:102A8E00031D4B2D70087402031C5B2D7008F4029D
:102A9E007108031C710FF5027208031C720FF60207
:102AAE007308031C730FF70201300310F30CF20CC2
:102ABE00F10CF00CFF3E031D5C2D0130F902031DDD
:102ACE003D2D7708F3007608F2007508F1007408C2
:102ADE00F000080083120313A101F81F7D2DF709E2
:102AEE00F809F70A0319F80AA101A10AFA1F882D9D
:102AFE00F909FA09F90A0319FA0A0130FB007B08F1
:102B0E00A106A201A301770878040319BF2DA00125
:102B1E00A00AF81B9E2D01300310F70DF80DFF3E95
:102B2E00031D932D0130FB007B08A007902D013073
:102B3E000310A20DA30DFF3E031D9F2D78087A02F0
:102B4E00031DAB2D77087902031CB42D7708F9020B
:102B5E007808031CFA03FA02221401300310F80C51
:102B6E00F70CFF3E031DB52D0130A002031D9E2D57
:102B7E0021080319C72DA209A309A20A0319A30A42
:102B8E002308F8002208F7000800F21FF32D00308A
:102B9E00F6000030F7008030F8007009F900710976
:102BAE00FA007209FB00F90A0319FA0A0319FB0A63
:102BBE007908F6077A0803187A0FE62DE72DF7073E
:102BCE007B0803187B0FEC2DED2DF8077608F0002F
:102BDE007708F1007808F200F51F1A2E0030F60083
:102BEE000030F7008030F8007309F9007409FA001C
:102BFE007509FB00F90A0319FA0A0319FB0A790889
:102C0E00F6077A0803187A0F0D2E0E2EF7077B089B
:102C1E0003187B0F132E142EF8077608F30077088F
:102C2E00F4007808F5008030F2068030F50675085D
:102C3E007202031D080074087102031D0800730858
:102C4E00700208000030FC000030FB000030FA007B
:102C5E000030F900730872047104700403197E2E9B
:102C6E00FD01FD0AF31B492E0130F8000310F00D93
:102C7E00F10DF20DF30DF80B3D2E0130F800780832
:102C8E00FD07392E0130F8000310F90DFA0DFB0D7A
:102C9E00FC0DF80B4B2E73087702031D602E720885
:102CAE007602031D602E71087502031D602E7008DA
:102CBE007402031C712E7008F4027108031C710F4C
:102CCE00F5027208031C720FF6027308031C730FD1
:102CDE00F702791401300310F30CF20CF10CF00C26
:102CEE00FF3E031D722E0130FD02031D492E7C088E
:102CFE00F3007B08F2007A08F1007908F000080072
:102D0E007B0883120313A0007C08A1007D08A2009B
:102D1E000310210D220DA3002308A8002808031D6F
:102D2E009F2E0030F8000030F9000030FA00080045
:102D3E007808A0007908A1007A08A2000310210DDE
:102D4E00220DA3002308A9002908031DB52E00306B
:102D5E00F8000030F9000030FA0008000030A5003D
:102D6E000030A6000030A70089302907A0002008F7
:102D7E00A8027B08A0007C08A1007D08A2001030EC
:102D8E000310A20CA10CA00CFF3E031DC72E2008A1
:102D9E00A3002308A9007808A0007908A1007A08EA
:102DAE00A20010300310A20CA10CA00CFF3E031DBC
:102DBE00D92E2008A3002308A9068030A0002008E1
:102DCE00A905FC17FF30FB05FF30FC050030FD05A3
:102DDE00F917FF30F805FF30F9050030FA05183005
:102DEE00A0002008A40001300310A50DA60DA70D0C
:102DFE00FF3E031DFB2E7A087D02031D0C2F790862
:102E0E007C02031D0C2F78087B02031C192F7808F7
:102E1E00FB027908031C790FFC027A08031C7A0A5C
:102E2E00FD02251401300310FB0DFC0DFD0DFF3EC0
:102E3E00031D1A2F0130A402031DFA2E2508F000DF
:102E4E002608F1002708F2002808A0002008F30049
:102E5E002908A1002108F4000A128A1539207008E9
:102E6E00F8007108F9007208FA0008007008F60000
:102E7E007108F7007208F8000310770D780DF9004D
:102E8E00790883120313A5002508031D572F003060
:102E9E00F3000030F2000030F1000030F0000800C6
:102EAE007308F6007408F7007508F8000310770D24
:102EBE00780DF9007908A4002408031D6F2F003047
:102ECE00F3000030F2000030F1000030F000080096
:102EDE00F117FF30F005FF30F1050030F205F41761
:102EEE00FF30F305FF30F4050030F5050030A30088
:102EFE000030A2000030A1000030A0007F30A502FB
:102F0E0098302407F6007608A5021830F6007608E9
:102F1E00A4000130F6000310A00DA10DA20DA30D0B
:102F2E00F60B922F75087202031DA32F74087102FF
:102F3E00031DA32F73087002031CB02F7308F00239
:102F4E007408031C740FF1027508031C750AF20253
:102F5E00201401300310F00DF10DF20DFF3E031D94
:102F6E00B12F0130A402031D902FA51FDC2F2508C1
:102F7E00803A973E0318CC2F0030F3000030F20059
:102F8E000030F1000030F000080001300310A30CF7
:102F9E00A20CA10CA00CFF3E031DCD2F0130F6009C
:102FAE007608A5070319F72FCC2F18302502031C1E
:102FBE00F42F0030F3000030F2000030F10000304A
:102FCE00F00008000130F6000310A00DA10DA20DB7
:102FDE00A30DF60BEB2F0130A5022508031DE92FDB
:102FEE002308F3002208F2002108F1002008F00067
:022FFE000800C9
:00000001FF
